:100000000C9495000C94E7190C94E7190C94CF12FA
:100010000C9434150C94EB190C94B60F0C94F41545
:100020000C94E7190C9464150C9494150C94C41555
:100030000C94E7190C94E7190C94E7190C94E71940
:100040000C94E7190C94FB0E0C94E7190C94E71927
:100050000C94E7190C94E7190C94BA100C94E71956
:100060000C9404150C94D4140C94E7190C94E7190F
:100070000C94E7190C9433140C94E7190C94E719B9
:100080000C94E7190C94E7190C9469140C94E71973
:100090000C94E7190C94E7190C94E7190C94E719E0
:1000A0000C94E7190C94E7190C94E7190C94E719D0
:1000B0000C9468100C9424160C94E7190C94E7190E
:1000C0000C94E7190C94E7190C94E7190C94E719B0
:1000D0000C94E7190C94E7190C94E7190C94E719A0
:1000E0000C94E7190C94E719400040168040164024
:1000F0002700341E402740AB8040AB40B300342F74
:1001000040B340BD8040BD40BF00343740BF40C712
:100110008040C740C900343940C940CC8040CC4001
:10012000CD0008E940CD40CF800011241FBECFEFA5
:10013000CDBFDFE7DEBFE8EEF0E041E019C0B791E8
:10014000A79137912791079107FD0EC0979187914D
:10015000EF01F92FE82F0BBF07900D92A217B307FD
:10016000D9F7FE011BBE04C01D92A217B307E1F729
:10017000E932F40721F70E9475040C946519F8948C
:02018000FFCFAF
:10018200000000000000000000000000000000006D
:10019200000000F800000000000000333000000002
:1001A20000100C06100C0600000000000000000009
:1001B20040C07840C0784000043F04043F0404007B
:1001C200007088FC08300000001820FF211E00008B
:1001D200F008F000E018000000211C031E211E00A0
:1001E20000F00888700000001E2123241927211026
:1001F20010160E00000000000000000000000000C9
:10020200000000E01804020000000007182040006F
:1002120000020418E000000000402018070000005F
:10022200404080F0804040000202010F01020200C3
:10023200000000F0000000000101011F01010100A7
:10024200000000000000000080B07000000000000C
:100252000000000000000000000101010101010195
:10026200000000000000000000303000000000002C
:100272000000000080601804006018060100000001
:1002820000E010080810E000000F102020100F00FE
:10029200001010F8000000000020203F2020000085
:1002A20000700808088870000030282422213000DD
:1002B20000300888884830000018202020110E00E5
:1002C2000000C02010F8000000070424243F24008E
:1002D20000F80888880808000019212020110E0063
:1002E20000E0108888180000000F112020110E0075
:1002F20000380808C83808000000003F000000006D
:100302000070880808887000001C222121221C002D
:1003120000E010080810E0000000312222110F0056
:10032200000000C0C00000000000003030000000EB
:10033200000000800000000000008060000000005B
:100342000000804020100800000102040810200074
:1003520040404040404040000404040404040400BF
:100362000008102040800000002010080402010054
:10037200007048080808F000000000303601000054
:10038200C030C828E810E0000718272423140B0007
:100392000000C038E0000000203C23020227382081
:1003A20008F8888888700000203F202020110E0065
:1003B200C03008080808380007182020201008005C
:1003C20008F808080810E000203F202020100F0045
:1003D20008F88888E8081000203F20202320180011
:1003E20008F88888E8081000203F20000300000079
:1003F200C03008080838000007182020221E02001A
:1004020008F808000008F808203F210101213F20D8
:10041200000808F8080800000020203F2020000003
:1004220000000808F8080800C08080807F000000F3
:1004320008F888C028180800203F2001263820002C
:1004420008F8080000000000203F20202020300093
:1004520008F8F800F8F80800203F003F003F2000AD
:1004620008F830C00008F808203F200007183F00B5
:10047200E01008080810E0000F10202020100F00E4
:1004820008F808080808F000203F210101010000D7
:10049200E01008080810E0000F18242438504F001C
:1004A20008F8888888887000203F2000030C3020DC
:1004B20000708808080838000038202121221C001A
:1004C200180808F8080818000000203F2000000063
:1004D20008F808000008F808001F202020201F004C
:1004E2000878880000C83808000007380E010000AC
:1004F200F80800F80008F800033C0700073C030076
:10050200081868808068180820302C03032C3020DB
:100512000838C800C83808000000203F200000004A
:1005220010080808C83808002038262120201800A2
:10053200000000FE020202000000007F4040400076
:10054200000C30C000000000000000010638C000AE
:1005520000020202FE000000004040407F00000056
:10056200000004020202040000000000000000007B
:100572000000000000000000808080808080808079
:100582000002020400000000000000000000000061
:1005920000008080808000000019242222223F2057
:1005A20008F8008080000000003F112020110E009A
:1005B2000000008080800000000E11202020110029
:1005C200000000808088F800000E112020103F20DB
:1005D2000000808080800000001F2222222213005F
:1005E200008080F0888888180020203F20200000AA
:1005F2000000808080808000006B9494949360005F
:1006020008F8008080800000203F210000203F2069
:1006120000809898000000000020203F2020000069
:10062200000000809898000000C08080807F000059
:1006320008F8000080808000203F24022D30200036
:10064200000808F8000000000020203F20200000E1
:100652008080808080808000203F20003F20003FFB
:100662008080008080800000203F210000203F2009
:100672000000808080800000001F202020201F00BA
:10068200808000808000000080FFA12020110E00E9
:100692000000008080808000000E112020A0FF80DA
:1006A200808080008080800020203F212000010087
:1006B20000008080808080000033242424241900DC
:1006C200008080E0808000000000001F20200000E9
:1006D2008080000000808000001F202020103F202A
:1006E200808080000080808000010E3008060100BA
:1006F20080800080008080800F300C030C300F005F
:1007020000808000808080000020312E0E31200089
:10071200808080000080808080818E7018060100B9
:1007220000808080808080000021302C22213000D7
:1007320000000000807C020200000000003F4040F8
:1007420000000000FF00000000000000FF000000A9
:100752000002027C800000000040403F00000000D8
:100762000006010102020404000000000000000073
:10077200424D45323830204661696C00424D493362
:100782003233204661696C0041565231323844415D
:10079200204D656C6F64790056523A20202020204B
:1007A20054656D703A004C69676874696E673D0004
:1007B2002534640025336400596F757220446972D0
:1007C200656374696F6E2069732041200A0D0053BE
:1007D2005731206973204449522D412020202000A6
:1007E200596F757220446972656374696F6E20690E
:1007F200732042200A0D0053573120697320444967
:10080200522D422020202000596F757220446972B7
:10081200656374696F6E2069732043200A0D00536B
:100822005731206973204449522D43202020200053
:10083200596F757220446972656374696F6E2069BD
:10084200732044200A0D0053573120697320444914
:10085200522D442020202000596F75722044697265
:10086200656374696F6E20697320446F776E200A26
:100872000D00535731206973204449522D446F773C
:100882006E2000536D696C6520210A0D004E6F20A9
:0E089200535731204576656E742020202000DB
:1008A00068076C094C836A9074A07AC000806888DD
:0608B00000846C8200814F
:1008B600F017531853168116C5130000CA191F19CD
:0408C600B61900005F
:1008CA007A19701983194F178A13E1199E19B617E5
:0208DA002B19D8
:0708DC00286E756C6C290009
:0608E300286E696C29007B
:0108E90010FE
:1008EA00CF93DF9300D000D0CDB7DEB70E94B31804
:1008FA008DED99E10E94D41982E08093E5050E946A
:10090A000F100E946B1880ED809337408EEB98E0B1
:10091A00A0E0FC015A2F0E948C197B0101E010E033
:10092A0027E230E441E050E067E370E486E790E0D4
:10093A00F701099584EC98E0A0E0FC015A2F0E9487
:10094A008C198B010B831C83F80109958111FACF4D
:10095A0080912740803641F022E737E040E060E0AE
:10096A0080E00E94570CFFCF1092374004E010E05D
:10097A0027E230E441E050E067E370E488E690E083
:10098A00F7010995EB81FC8109958111FBCF8091D3
:10099A002940833441F02EE737E040E062E080E00E
:1009AA000E94570CFFCFE7E3F0E41082118288E13E
:1009BA0082838AEB98E0A0E0FC015A2F0E948C19EE
:1009CA008B0143E050E067E370E480E190E0F801D6
:1009DA000995EB81FC8109958111FBCFE7E3F0E4EE
:1009EA0081E08083118284E0828342E050E0BF018B
:1009FA008FE190E0F8010995EB81FC81099581115D
:100A0A00FBCFE7E3F0E482E0808385E0818380EA3C
:100A1A00828343E050E0BF018FE190E0F80109953D
:100A2A00EB81FC8109958111FBCFE7E3F0E483E0D8
:100A3A008083118280E1828343E050E0BF018FE12D
:100A4A0090E0F8010995EB81FC8109958111FBCFB2
:100A5A00E7E3F0E484E0808385E0818380EA8283AF
:100A6A0043E050E0BF018FE190E0F8010995EB8186
:100A7A00FC8109958111FBCF2AE837E040E060E06C
:100A8A000E94570C2AE937E040E064E080E00E94C7
:100A9A00570C28EA37E040E066E080E00E94570CF5
:100AAA0080E00E94E4196894992492F899820F2EA2
:100ABA00F5E22F2EF4E03F2EF02DF8E0FA830F2E08
:100ACA00F2EB6F2EF7E07F2EF0E08F2EF02D0F2E37
:100ADA00F2E0CF2EF0E4DF2EF02D0F2EF7E34F2EAB
:100AEA00F0E45F2EF02D0F2EF5E6EF2EF0E4FF2E48
:100AFA00F02D0F2EA12CFAE0BF2EF02D8091CE40C2
:100B0A008823E1F32981E7E2F4E020832A81F101D5
:100B1A00208380E00E9402198093BF409093C040D6
:100B2A009F938F938F927F926F92DF92CF920E94C0
:100B3A00DD189601492D692D88E10E94D30C85E0C4
:100B4A00F20180838EEB98E0A0E0FC015A2F0E940C
:100B5A008C19FB0102E010E027E230E441E050E0AA
:100B6A00B2018FE190E00995CDBFDEBF84EC98E039
:100B7A00A0E0FC015A2F0E948C198B01F8010995FB
:100B8A008111FCCFE7E2F0E48081218190E0982F87
:100B9A008827820F911D929582958F7089279F7061
:100BAA00892799278093C3409093C4409F938F933A
:100BBA0086EB97E0A0E0AF939F938F93DF92CF925B
:100BCA000E94DD18960143E0692D88E60E94D30C45
:100BDA00CDBFDEBF309B05C080E1E6E2F4E0808352
:100BEA0003C080E1F1018083319B05C080E2E6E227
:100BFA00F4E0808303C080E2F1018083749913C01A
:100C0A008AEB97E0A0E0AF939F938F930E94091815
:100C1A0021ED37E040E062E080E00E94570C0F903F
:100C2A000F900F9066C0759913C082EE97E0A0E00E
:100C3A00AF939F938F930E94091829EF37E040E002
:100C4A0062E080E00E94570C0F900F900F9051C005
:100C5A00719913C08AE098E0A0E0AF939F938F93B5
:100C6A000E94091821E238E040E062E080E00E9438
:100C7A00570C0F900F900F903CC0729913C082E3EB
:100C8A0098E0A0E0AF939F938F930E94091829E4FC
:100C9A0038E040E062E080E00E94570C0F900F902D
:100CAA000F9027C0909913C08AE598E0A0E0AF930F
:100CBA009F938F930E94091824E738E040E062E08E
:100CCA0080E00E94570C0F900F900F9012C085E899
:100CDA0098E0A0E0AF939F938F930E9409182FE8A2
:100CEA0038E040E062E080E00E94570C0F900F90DD
:100CFA000F908091C1409091C24081309105C9F016
:100D0A0030F08230910539F10397B9F144C08091EE
:100D1A00CC40F70180831182128213828483158268
:100D2A001682178281E090E08093C1409093C2407E
:100D3A0041C0F70110828091CC4081831282838363
:100D4A00148215821682178282E090E08093C14055
:100D5A009093C2402FC0F701108211828091CC403B
:100D6A0082831382148285831682178283E090E03D
:100D7A008093C1409093C2401DC0F7011082118236
:100D8A001282138214821582168217821092C1402F
:100D9A001092C2400FC082E0F70180838183828370
:100DAA0080E2838384838583168217821092C140EE
:100DBA001092C24081E880934109000000000000BF
:100DCA00F7018081809344090000000000000000C0
:100DDA000000000000000000000000000000000009
:100DEA00F501808181608083809143098823E4F73B
:100DFA0080914409F70181818093440980914309D4
:100E0A008823E4F780914409F70182818093440999
:100E1A00809143098823E4F780914409F70183818B
:100E2A0080934409809143098823E4F78091440917
:100E3A00F701848180934409809143098823E4F768
:100E4A0080914409F701858180934409809143097F
:100E5A008823E4F7809144098093CD40F701868185
:100E6A0080934409809143098823E4F7F50180813E
:100E7A008E7F80830E947217809144098093CD40AF
:100E8A00F20190828EEB98E0A0E0FC015A2F0E94BA
:100E9A008C19FB0102E010E027E230E441E050E067
:100EAA00B20180E190E0099584EC98E0A0E0FC01B1
:100EBA005A2F0E948C198B01F80109958111FCCFD8
:100ECA00E7E2F0E42081818190E0982F8827820F61
:100EDA00911D8093C5409093C6408115F8E09F0705
:100EEA0020F420E82093CC4003C020E12093CC409A
:100EFA009F938F938F927F926F92DF92CF920E94ED
:100F0A00DD189601492D66E080E50E94D30C0E9407
:100F1A004F1980E8809341098091BD409091BE406D
:100F2A0088519C4FCDBFDEBF811530E1930728F46D
:100F3A008093BD409093BE4004C01092BD40109271
:100F4A00BE408091BD409091BE4090638093BB406B
:100F5A009093BC4080E8809306048091BC408093C3
:100F6A004409809143098823E4F7809144098091D8
:100F7A00BB4080934409809143098823E4F7809118
:100F8A0044098093CD408091C6408F938091C5409B
:100F9A008F938F927F926F92DF92CF920E94DD1889
:100FAA0080E8809305048093660400000000000036
:100FBA00809365041092CE4028E0E6E2F4E02083B4
:060FCA00CDBFDEBF9BCD90
:100FD0002F923F924F926F927F928F929F92AF92F9
:100FE000BF92CF92DF92EF92FF920F931F93CF9316
:100FF000DF93CDB7DEB72E97CDBFDEBF4C016B01BF
:10100000380119821A828FEF9FEF8B839C831D8298
:101010001E824F83588729873A87A12CB12CD6018D
:101020002D913D914C912A0D3B1D411DB7FC4A95D8
:10103000F901542F0E94BD19862F611116C0F601C7
:10104000208331834283F901542F0E94BD196532F8
:1010500009F011C21901442EFFEF2F1A3F0A4F0A5F
:10106000D6012D923D924C921BC0653241F3B401E2
:10107000082E000C990B0E943E124FEFA41AB40ADE
:10108000CECF6C32DCF06D3229F529813A812160B6
:1010900029833A830196A11DF60180839183A2835F
:1010A000F60180819181A281FC015A2F0E94BD1915
:1010B0006B3239F729813A812460EACF603221F41A
:1010C00029813A812860E4CF633251F429813A8141
:1010D0002061DECF603321F429813A812260D8CFAC
:1010E000B701C6010E940E138D839E8397FF0BC02C
:1010F00029813A81F1E02F2729833A8391958195BF
:1011000091098D839E8389819A8180FF03C08D7FA1
:1011100089839A83F60180819181A281FC015A2FF3
:101120000E94BD196E3261F40196A11DF601808303
:101130009183A283B701C6010E940E138B839C8307
:10114000C6010E940C11182FD6019C9111968C910A
:10115000119712965C91E92FF82F0E94BD19862FE6
:10116000660F990B0E94AE19893609F44BC084F4BE
:10117000833609F41CC134F4853209F448C1813640
:10118000E1F053C18436F1F188360CF4EBC04DC167
:10119000803709F4B2C03CF48E3609F4D8C08F36DB
:1011A00009F46EC042C1853709F44BC0883709F491
:1011B00086C0833709F039C110C1612F70E0A701E3
:1011C000CE010B960E940000892B09F44BC1F60159
:1011D00080819181A2819C014A2F2F5F3F4F4F4F09
:1011E000208331834283FC015A2F0E94BD19262F90
:1011F000AE01455F5F4FBE016F5F7F4FC4010E942C
:1012000000002DC1612F70E0970141E050E0CE0158
:101210000B960E94C20D892B09F424C1F60180812E
:101220009181A2810196A11D80839183A283AE0149
:10123000455F5F4FBE016F5F7F4FC4010E944F0D3E
:101240000EC1612F70E0970140E050E0CE010B9697
:101250000E94C20D892B09F405C1F601808191819C
:10126000A2810196A11D80839183A283AE01455F77
:101270005F4FBE016F5F7F4FC4010E948712EFC0B6
:10128000612F70E0970140E050E0CE010B960E9484
:10129000C20D892B09F4E6C0F60180819181A281FB
:1012A0000196A11D80839183A283AE01455F5F4FAC
:1012B000BE016F5F7F4FC4010E945C0FD0C0612FE1
:1012C00070E0970140E050E0CE010B960E94C20D05
:1012D000892B09F4C7C0F60180819181A2819C010C
:1012E0004A2F2F5F3F4F4F4F208331834283FC01B2
:1012F0005A2F0E94BD19262F20C0970140E050E0D0
:1013000060EF70E0CE010B960E94C20D892B09F4AC
:10131000A9C0F60180819181A2810196A11D8083DF
:101320009183A2838B859C85892B31F400E010E0AA
:1013300023EE38E040E08DC028E7AE01455F5F4F07
:10134000BE016F5F7F4FC4010E946A0B88C0A50178
:10135000460D571D612F70E09701CE010B960E943C
:10136000000080C0612F70E0A701CE010B960E94A3
:101370000000892B09F476C0F60180819181A28159
:101380009C014A2F2F5F3F4F4F4F20833183428371
:10139000FC015A2F0E94BD19262FAE01455F5F4FF9
:1013A000BE016F5F7F4FC4010E94000058C010381B
:1013B00009F058C0F60180819181A2810196A11D9A
:1013C00080839183A283D701ED91FC911197CF0186
:1013D00002968D939C93808126C0103809F042C0FC
:1013E000F60180819181A2810196A11D8083918364
:1013F000A283D701ED91FC911197CF0103968D93B4
:101400009C9320813181428100E010E022C010389D
:1014100049F5F6012081318142812F5F3F4F4F4FC7
:101420002083318342838B870EC085E28B87F60150
:1014300020823182428219821A821D821E828FEF9F
:101440009FEF8B839C839E01255F3F4F40E801E027
:1014500010E0BE016F5F7F4FC4010E944D138A0DE3
:101460009B1D0AC0F60180819181A2810196A11D78
:1014700080839183A283C5012E96CDBFDEBFDF910D
:10148000CF911F910F91FF90EF90DF90CF90BF9081
:10149000AF909F908F907F906F904F903F902F9044
:0214A0000895AD
:1014A200EF92FF921F93CF93DF9340E054E08EEDD3
:1014B200FA01808320E234E08CE3F901808380E446
:1014C20094E06CE0FC016083C0E6D4E070E87883CD
:1014D200A0E8B4E01C920F2EF0EAEF2EF4E0FF2E0B
:1014E200F02D60E1F701608312E8FA01148314E041
:1014F200F9011483FC0114827C8314961C921497C4
:10150200F7016483FA01108A118A128A138A148AF3
:10151200158A168A178AF901108A118A128A138A81
:10152200148A158A168A178AFC01108A118A128A6D
:10153200138A148A158A168A178A188A198A1A8AA5
:101542001B8A1C8A1D8A1E8A1F8A50961C925097DB
:1015520051961C92519752961C92529753961C92F6
:10156200539754961C92549755961C92559756969B
:101572001C92569757961C92F701108A118A128A6A
:10158200138A148A158A168A178AE0EEF5E0118604
:101592001182108214821682178282E0808715825D
:1015A2006283138212868DEE99E18093A340909319
:1015B200A4408EEE99E18093A1409093A2408FEED9
:1015C20099E180939F409093A04080EF99E18093AE
:1015D2009D4090939E4081EF99E180939B40909330
:1015E2009C4082EF99E18093994090939A4083EFD7
:1015F20099E1809397409093984084EF99E180938A
:1016020095409093964085EF99E180939340909313
:10161200944086EF99E1809391409093924087EFB6
:1016220099E180938F409093904088EF99E1809365
:101632008D4090938E4089EF99E180938B409093F7
:101642008C408AEF99E18093894090938A408BEF96
:1016520099E180938740909388408CEF99E1809341
:101662008540909386408DEF99E1809383409093DB
:1016720084408EEF99E180938140909382408FEF76
:1016820099E180937F409093804080E09AE180933B
:101692007D4090937E4081E09AE180937B409093DD
:1016A2007C4082E09AE18093794090937A4083E093
:1016B2009AE1809377409093784084E09AE1809316
:1016C200754090937640DF91CF911F91FF90EF90FC
:0216D200089579
:1016D400AFE0B0E0E0E7FBE00C9422181C016B01E2
:1016E40049835A832B83FB01828193818480958073
:1016F400E080F180A680B78097FD03C0E894E1F80C
:1017040002C081E090E0E981FA81408051806280EA
:1017140073809701207133272C833D838401E4FE79
:1017240007C0411451046104710411F002501109FD
:10173400F701E870FF27EE83FF83E3FE02C0015048
:101744001109F6010084F185E02D3197EE87FF87BA
:10175400EA0DFB1D10829C01201B310B2887398761
:10176400C701827099278A879B87EB818E2FEE0FA2
:10177400990B9C01215431092C873D872E853F8587
:101784002230310530F48C819D81892B09F041C0D0
:101794005BC0411451046104710459F18E859F8525
:1017A40001978E879F87C2018F7099278A30910590
:1017B40014F4C09602C0895A9F4FEC85FD857A9730
:1017C40048F49C012062215631092A31310510F474
:1017D4000E949519EE85FF85EA0DFB1D808301505B
:1017E400110984E076946794579447948A95D1F7C5
:1017F400C5CF88859985800F911F1816190674F234
:10180400101611060CF0BFCFEA85FB85EF2B31F6DD
:10181400BACFE981FA8180819181A281B381892B38
:101824008A2B8B2B89F0EE85FF85EA0DFB1D319702
:101834002B8120838E859F8502978E879F87FC014D
:10184400EA0DFB1D80E38083EE81FF81EF2B59F0CD
:101854002E853F85215031092E873F87F901EA0DF6
:10186400FB1D80E28083F6012085318521503109FA
:101874008E859F85281B390B8A0D9B1DAC0160E862
:101884008401C1010E94AA119C01F101808191810E
:1018940090FF06C0F60182819381821793070CF4AE
:0A18A400C9012F96E2E10C949B1895
:1018AE006F927F928F92CF92DF92EF92FF920F9371
:1018BE001F93CF93DF93D82FF62E3901842EF90183
:1018CE00582D0E94BD19662309F45AC010E0C0EECF
:1018DE00C60FD93710F0F394D0E06F2D8D2F0E94E4
:1018EE00CA1820E1C29F60011124C601DD0CAA0BAB
:1018FE009C014A2F2E573E4F4F4F6901E42E00E0B8
:10190E00F6015E2D0E94BD19862F0E942A170F5FC9
:10191E003FEFC31AD30AE30A083091F761E06F0D67
:10192E008D2F0E94CA1840E1C49F6001112488E0E7
:10193E00C80ED11CC601DD0CAA0B9C014A2F2E57D6
:10194E003E4F4F4F6901E42EC8E0F6015E2D0E9416
:10195E00BD19862F0E942A17C1503FEFC31AD30A12
:10196E00E30AC111F2CFD85F1F5FA82DC301810F0B
:10197E00911DA11DFC015A2F0E94BD196111A7CF07
:10198E00DF91CF911F910F91FF90EF90DF90CF904D
:08199E008F907F906F90089577
:1019A6004F925F926F927F928F92BF92CF92DF9209
:1019B600EF920F931F93CF93DF93182FB62E4423E6
:1019C60009F45CC0E9014150842F90E00196290199
:1019D600480E591E899100EE080F193710F0B3947E
:1019E60010E06B2D812F0E94CA1820E1029F300162
:1019F6001124C301770CAA0B9C014A2F2E573E4F88
:101A06004F4F3901842E6894EE24E3F8F301582DE4
:101A16000E94BD19862F0E942A17EA943FEF631A87
:101A2600730A830AE110F2CF61E06B0D812F0E94E9
:101A3600CA1840E1049F6001112488E0C80ED11C39
:101A4600C601DD0CAA0B9C014A2F2E573E4F4F4F65
:101A56006901E42E08E0F6015E2D0E94BD19862F6D
:101A66000E942A170F5F3FEFC31AD30AE30A003119
:101A760091F7185FC415D50509F0ACCFDF91CF916A
:101A86001F910F91EF90DF90CF90BF908F907F9036
:081A96006F905F904F900895DE
:101A9E00A2E0B0E0E5E5FDE00C9422184C016B01EC
:101AAE00FB0122813381A480B5808081918189835D
:101ABE009A8366807780FA0120803180428053803D
:101ACE00B201A10157FE07C044275527BA0142199A
:101ADE0053096409750937FD03C08D7F89839A8385
:101AEE00950157FC05C0898182FD02C083FF02C0AB
:101AFE0021503109CE0101967C010AE010E0C601A9
:101B0E000E94960E57FC03C0298122FF0AC001973E
:101B1E00F301E80FF91F57FC02C02BE209C02DE2BA
:101B2E0007C023FF06C00197F301E80FF91F20E25B
:101B3E002083E980FA80F601208531852150310914
:101B4E00281B390B860D971DAC0160E88501C40179
:101B5E000E94AA119C01F4018081918190FF06C020
:101B6E00F60182819381821793070CF4C9012296A4
:061B7E00E2E10C949B184B
:101B8400CF93DF93DC01F90168387105F1F05CF45F
:101B94006138710561F164387105C9F16038710506
:101BA40009F056C034C0603C710561F1603F7105B5
:101BB40009F443C0603A710509F04AC0C081D1817B
:101BC400CE010296808391832AC0C081D181CE0147
:101BD400029680839183452B39F04881042E000CB2
:101BE400550B660B770B21C0488150E02EC0C08195
:101BF400D181CE01049680839183488159816A8181
:101C04007B8113C0C081D181CE0102961AC0C081EC
:101C1400D181CE01029680839183452BA1F0488126
:101C24005981052E000C660B770B4D935D936D93D4
:101C34007C93139781E090E00DC0C081D181CE01E7
:101C44000396808391834881598160E070E0EDCFF1
:0A1C540080E090E0DF91CF91089549
:101C5E00CF93DF938091050982FF0CC0E7E5F0E496
:101C6E0086E0858783E08487E0E0F9E08581846003
:101C7E00858337C080910709882381F080910509FB
:101C8E0084FF0CC0E7E5F0E485E0858781E084877A
:101C9E00E0E0F9E085818061858323C080910809A9
:101CAE00882381F08091050984FF0CC0E7E5F0E4FC
:101CBE0085E0858782E08487E0E0F9E085818061B8
:101CCE0085830FC08091050983FF0BC0E7E5F0E423
:101CDE0086E0858783E08487E0E0F9E0858188608F
:101CEE008583C7E5D0E48D8590E0880F991F092E76
:101CFE00000CAA0B8653974FAF4FFC015A2F0E9430
:101D0E008C19FB0109958D878C85882329F0E0912C
:0E1D1E007340F09174400995DF91CF910895C4
:101D2C00A0E0B0E0ECE9FEE00C942418DC01280102
:101D3C001696AD90BC901797F70180819181129601
:101D4C00ED91FC9113971896CD91DC9119972197F1
:101D5C00F7FF02C0E1E0F0E0CA0DDB1D188269015B
:101D6C00A1E0B0E08F01021B130B4C01F2E08F22BB
:101D7C009924052C000C66087708CE018A199B095A
:101D8C00CA15DB0519F1411551056105710589F07D
:101D9C00CB01BA01A30192010E949417CA01A62F8C
:101DAC00B72F605D6A9341E0C41AD108A901BC0148
:101DBC00E4CF98012C0D3D1D121613064CF31C1488
:101DCC001D0434F48114910419F702C080E090E0F2
:101DDC00AB2B31F4F701208131812F7E20833183AD
:0A1DEC00CDB7DEB7E0E10C949D18BE
:101DF6001F920F920FB60F9211240BB60F922F93CC
:101E06003F934F935F936F937F938F939F93AF937C
:101E1600BF93CF93DF93EF93FF938091050984FDE2
:101E260007C08091050982FD03C08091050983FDE5
:101E36000E942F0E80910509882324F080910509C0
:101E460086FF22C08091050984FD08C0809105099E
:101E560082FD04C08091050983FF03C00E942F0EF6
:101E660013C0C7E5D0E48D8590E0880F991F092E31
:101E7600000CAA0B8653974FAF4FFC015A2F0E94B6
:101E86008C19FB0109958D87FF91EF91DF91CF9119
:101E9600BF91AF919F918F917F916F915F914F917C
:101EA6003F912F910F900BBE0F900FBE0F901F907A
:021EB60018957D
:101EB800A2E0B0E0E2E6FFE00C9426185C016B01BA
:101EC800FB0122813381848095808081918189837F
:101ED8009A836680778037FD03C08D7F89839A83D4
:101EE800FA014081518162817381CE0101967C01A2
:101EF80008E010E09401C6010E94960E298124FF93
:101F080006C00197F301E80FF91F20E32083298118
:101F180023FF06C00197F301E80FF91F20E2208391
:101F2800E980FA80F6012085318521503109281B86
:101F3800390B860D971DAC0160E88401C5010E942C
:101F4800AA119C01F5018081918190FF06C0F601DC
:101F580082819381821793070CF4C9012296EEE0DF
:041F68000C949F181E
:101F6C001F920F920FB60F9211240BB60F922F9354
:101F7C003F934F935F936F937F938F939F93AF9305
:101F8C00BF93EF93FF931B9B05C0E0919F40F09193
:101F9C00A04009951D9B05C0E0919D40F0919E408D
:101FAC0009951C9B05C0E0919B40F0919C400995C4
:101FBC001E9B05C0E0919940F0919A400995199BA0
:101FCC0005C0E0919740F091984009951A9B05C087
:101FDC00E0919540F091964009951F9B05C0E091CA
:101FEC008340F091844009958FEF83B9FF91EF9175
:101FFC00BF91AF919F918F917F916F915F914F9115
:10200C003F912F910F900BBE0F900FBE0F901F9012
:02201C00189515
:10201E0082E390E00E945A198EEA0E94051780E230
:10202E000E94051780E10E94051780EB0E9405179C
:10203E0088EC0E94051780E00E94051780E10E943F
:10204E00051780E40E94051781E80E9405178FE7A7
:10205E000E94051781EA0E94051786EA0E9405175D
:10206E0088EA0E9405178FE30E94051784EA0E94F2
:10207E00051783ED0E94051780E00E94051785ED78
:10208E000E94051780EF0E94051789ED0E94051723
:10209E0082E20E9405178AED0E94051782E10E94D6
:1020AE0005178BED0E94051780E20E9405178DE83B
:1020BE000E94051784E10E9405178FEA0E940517FA
:0220CE00089573
:1020D0001F920F920FB60F9211240BB60F922F93EF
:1020E0003F934F935F936F937F938F939F93AF93A0
:1020F000BF93EF93FF93389B05C0E0919140F0911F
:1021000092400995399B05C0E0918F40F091904035
:1021100009953A9B05C0E0918140F0918240099574
:102120003B9B05C0E0917F40F091804009953C9B2E
:1021300005C0E0917D40F0917E4009953D9B05C032
:10214000E0917B40F0917C4009958FEF87B9FF913A
:10215000EF91BF91AF919F918F917F916F915F911F
:102160004F913F912F910F900BBE0F900FBE0F908C
:042170001F9018950F
:102174001F920F920FB60F9211240BB60F922F934A
:102184003F934F935F936F937F938F939F93AF93FB
:10219400BF93EF93FF93789B05C0E0919340F09138
:1021A40094400995799B05C0E0918D40F0918E4053
:1021B40009957A9B05C0E0918B40F0918C4009957C
:1021C4007C9B05C0E0918940F0918A4009957D9BF4
:1021D40005C0E0918740F091884009957F9B05C038
:1021E400E0917540F091764009958FEF8FB9FF919A
:1021F400EF91BF91AF919F918F917F916F915F917B
:102204004F913F912F910F900BBE0F900FBE0F90E7
:042214001F9018956A
:10221800CF92DF92EF92DC0190E0292F30E0220F7D
:10222800331F6901032E000CEE086E2DA6014056DF
:10223800574F6F4F6A01E62EFA015E2D0E94BD19B5
:10224800862F61110EC02F5F3F4F032E000C440BE9
:102258002056374F4F4FF901542F0E94BD19862F32
:1022680025C0CD90DD90EC901297F6015E2D0E946E
:10227800BD19861316C02F5F3F4F032E000C440B69
:102288002056374F4F4FF901542F0E94BD19962FF2
:102298005FEFC51AD50AE50ACD92DD92EC92129746
:1022A80001C09F5F9B3008F4B8CF892FEF90DF9073
:0422B800CF90089526
:1022BC006F927F928F92EF92FF920F931F93CF9317
:1022CC00DF93CDB7DEB76197CDBFDEBFFE01319690
:1022DC0051E1DF011D925A95E9F7A2E0B1E0A98323
:1022EC00BA838B839C8377FF09C08FE490E0809343
:1022FC000040909301408FEF9FEF19C03901842E5D
:10230C007C01615071096E837F839801682DA30154
:10231C00CF010E948318488559852E813F81421731
:10232C00530708F49A01F701E20FF31F108261962C
:10233C00CDBFDEBFDF91CF911F910F91FF90EF903A
:08234C008F907F906F900895BF
:102354006F927F928F92AF92BF92CF92DF92EF9261
:10236400FF920F931F93CF93DF935C013A01862E64
:10237400E901670181E0C822DD24E0FC03C02017E5
:10238400310758F09E01682DA301C5010E949F14D6
:10239400C017D10710F0CE0118C07801EC1AFD0A5D
:1023A400E114F10449F0B50180E290E00E943E128C
:1023B40081E0E81AF108F4CFCD2831F49E01682DAC
:1023C400A301C5010E949F14C801DF91CF911F9101
:1023D4000F91FF90EF90DF90CF90BF90AF908F90D0
:0623E4007F906F90089548
:1023EA00A3E8B0E0EBEFF1E10C9428185C01490195
:1023FA00CF57DF4F488359836A83C158D040C12CD5
:10240A00D12CCF57DF4F9881C158D040CE57DF4FDC
:10241A008881C258D040CD57DF4F5881C358D04029
:10242A00E92FF82F0E94BD196623E9F0740186018D
:10243A0020E830E0AE014F5F5F4FBE016F577F4F1C
:10244A00C5010E94E8078C0D9D1D8C159D054CF455
:10245A008FE490E080930040909301408FEF9FEFCC
:10246A0003C06C01CECFC601CD57DF4FECE00C9410
:02247A00A118A7
:10247C000F931F93CF93DF93DB012D913C91119719
:10248C0030FF25C017964D915C91189715962D919C
:10249C003C9116974217530778F41296ED91FC91E4
:1024AC001397808312962D913C9113972F5F3F4F7A
:1024BC0012962D933C93139717962D913C91189748
:1024CC002F5F3F4F17962D933C93189715C01D9671
:1024DC00ED91FC911E97309719F48FEF9FEF0CC084
:1024EC008B01EC010995892BC1F7F8018781908547
:1024FC00019687839087CE01DF91CF911F910F9129
:02250C00089530
:10250E00A2E0B0E0EDE8F2E10C9426185C016B015C
:10251E00FB01228133818480958080819181898322
:10252E009A836680778037FD03C08D7F89839A8377
:10253E00FA014081518162817381CE0101967C0145
:10254E000AE010E09401C6010E94960EE980FA801E
:10255E00F6012085318521503109281B390B860D56
:10256E00971DAC0160E88401C5010E94AA119C016F
:10257E00F5018081918190FF06C0F60182819381E1
:10258E00821793070CF4C9012296EEE00C949F1863
:10259E001F920F920FB60F9211240BB60F922F931C
:1025AE003F934F935F936F937F938F939F93AF93CD
:1025BE00BF93EF93FF938091430180FF07C0E0919B
:1025CE00A940F091AA40309709F0099580914301F6
:1025DE0081FF07C0E091A740F091A840309709F025
:1025EE00099583E080934301FF91EF91BF91AF91E5
:1025FE009F918F917F916F915F914F913F912F910D
:0E260E000F900BBE0F900FBE0F901F901895EF
:10261C00CF93DF93DC01EB012D913D914C911297FF
:10262C00F901542F0E94BD196A3221F080E090E02C
:10263C007AE00FC02F5F3F4F4F4F2D933D934C933C
:10264C00E881F981CF0102968883998380819181F9
:10265C001BC02D913D914C911297F901542F0E9462
:10266C00BD1960536A3080F4789FF001799FF00DAA
:10267C001124CF01860F911D2F5F3F4F4F4F2D938C
:0E268C003D934C931297E5CFDF91CF910895C7
:10269A006F927F928F92CF92DF92EF92FF920F9377
:1026AA001F93CF93DF936C01FB013901842EC8017C
:1026BA00C281D38104811581E080F180232B242BF0
:1026CA0031F42CED622E28E0722E20E0822E009743
:1026DA0021F4882DB3010E94F018D7FD04C0C81751
:1026EA00D90708F4CE019C01682DA301C6010E94F6
:1026FA00AA11DF91CF911F910F91FF90EF90DF9078
:0A270A00CF908F907F906F9008959C
:102714008091604090916140019731F4E0E0F9E0EC
:1027240084818460848305C0E0E0F9E084818B7F48
:102734008483E7E5F0E48185928501978187928718
:10274400892B79F0A781B085CD0101968783908785
:10275400E0E0F9E080858C9384818260848384E066
:102764000895E7E5F0E4A781B085CD01019687835C
:102774009087E0E0F9E080858C9384818460848391
:062784000E94B617089543
:10278A008F929F92AF92BF92CF92DF92EF92FF9277
:10279A000F931F93CF93DF935C016B017A01490179
:1027AA000E941F19811115C0C7E5D0E481E0888312
:1027BA00A982BA828B87CB82DC82ED82FE828F82EB
:1027CA00988609871A871C860E9483198D8781E05B
:1027DA0001C080E0DF91CF911F910F91FF90EF90A0
:0E27EA00DF90CF90BF90AF909F908F9008959A
:1027F80040E068ED80E690E00E94CF1940E068ED87
:1028080081E690E00E94CF1940E068ED82E690E012
:102818000E94CF1940E068ED83E690E00E94CF194E
:1028280044E268ED88E690E00E94CF1940E068ED48
:1028380089E690E00E94CF1940E068ED88E790E0D3
:102848000E94CF1940E068ED80E790E00E94CF1920
:0E28580041E068ED8CE790E00E94CF190895F2
:102866001F920F920FB60F9211240BB60F922F9351
:102876003F934F935F936F937F938F939F93AF9302
:10288600BF93EF93FF935A9B05C0E0917940F09177
:102896007A4009955B9B05C0E0917740F0917840BE
:1028A60009958FEF8BB9FF91EF91BF91AF919F91F2
:1028B6008F917F916F915F914F913F912F910F90E3
:0C28C6000BBE0F900FBE0F901F901895D6
:1028D2001F920F920FB60F9211240BB60F922F93E5
:1028E2003F934F935F936F937F938F939F93AF9396
:1028F200BF93EF93FF93BD9B05C0E091A340F0917E
:10290200A4400995BC9B05C0E091A140F091A24072
:1029120009958FEF87BBFF91EF91BF91AF919F9187
:102922008F917F916F915F914F913F912F910F9076
:0C2932000BBE0F900FBE0F901F90189569
:10293E006F927F928F92CF92DF92EF920F931F93AF
:10294E00CF93DF938C016A01E62EE9013A01862EC0
:10295E00620E731E811C37FD8A94C614D704E804D8
:10296E0081F0F6015E2D0E94BD19862FB801082E4A
:10297E00000C990B0E943E128FEFC81AD80AE80A73
:10298E00ECCFCE01DF91CF911F910F91EF90DF90A1
:0A299E00CF908F907F906F90089506
:1029A8001F920F920FB60F9211240BB60F922F930E
:1029B8003F934F935F936F937F938F939F93AF93BF
:1029C800BF93EF93FF9382E080930D06E0917140EF
:1029D800F0917240309709F00995FF91EF91BF91FE
:1029E800AF919F918F917F916F915F914F913F919F
:1029F8002F910F900BBE0F900FBE0F901F90189540
:102A08001F920F920FB60F9211240BB60F922F93AD
:102A18003F934F935F936F937F938F939F93AF935E
:102A2800BF93EF93FF9381E080930D06E0916F4091
:102A3800F0917040309709F00995FF91EF91BF919F
:102A4800AF919F918F917F916F915F914F913F913E
:102A58002F910F900BBE0F900FBE0F901F901895DF
:102A68001F920F920FB60F9211240BB60F922F934D
:102A78003F934F935F936F937F938F939F93AF93FE
:102A8800BF93EF93FF93E091A540F091A640309754
:102A980009F0099581E080935301FF91EF91BF916F
:102AA800AF919F918F917F916F915F914F913F91DE
:102AB8002F910F900BBE0F900FBE0F901F9018957F
:102AC8001F920F920FB60F9211240BB60F922F93ED
:102AD8003F934F935F936F937F938F939F93AF939E
:102AE800BF93EF93FF93E091B140F091B2403097DC
:102AF80009F0099580E180930B0AFF91EF91BF914E
:102B0800AF919F918F917F916F915F914F913F917D
:102B18002F910F900BBE0F900FBE0F901F9018951E
:102B28001F920F920FB60F9211240BB60F922F938C
:102B38003F934F935F936F937F938F939F93AF933D
:102B4800BF93EF93FF93E091AF40F091B04030977F
:102B580009F0099580E280930B0AFF91EF91BF91EC
:102B6800AF919F918F917F916F915F914F913F911D
:102B78002F910F900BBE0F900FBE0F901F901895BE
:102B88001F920F920FB60F9211240BB60F922F932C
:102B98003F934F935F936F937F938F939F93AF93DD
:102BA800BF93EF93FF93E091AD40F091AE40309723
:102BB80009F0099580E480930B0AFF91EF91BF918A
:102BC800AF919F918F917F916F915F914F913F91BD
:102BD8002F910F900BBE0F900FBE0F901F9018955E
:102BE8001F920F920FB60F9211240BB60F922F93CC
:102BF8003F934F935F936F937F938F939F93AF937D
:102C0800BF93EF93FF93E091AB40F091AC403097C6
:102C180009F0099581E080930B0AFF91EF91BF912C
:102C2800AF919F918F917F916F915F914F913F915C
:102C38002F910F900BBE0F900FBE0F901F901895FD
:102C48001F920F920FB60F9211240BB60F922F936B
:102C58003F934F935F936F937F938F939F93AF931C
:102C6800BF93EF93FF93989B05C0E0918540F09147
:102C7800864009958FEF83BBFF91EF91BF91AF918C
:102C88009F918F917F916F915F914F913F912F917C
:0E2C98000F900BBE0F900FBE0F901F9018955F
:102CA600CF92DF92EF92FF920F931F93CF93DF9312
:102CB6006C017B018A010E941F19811115C0C7E5AD
:102CC600D0E481E08883C982DA821B86EB82FC82AB
:102CD6000D831E831F82188619861A861C860E94FB
:102CE60083198D8781E001C080E0DF91CF911F912C
:0C2CF6000F91FF90EF90DF90CF900895B9
:102D0200CF92DF92EF92FF920F931F93CF93DF93B5
:102D12006C017B018A010E941F19811115C0C7E550
:102D2200D0E481E08883C982DA821B86EF82F8864A
:102D320009871A871B821C821D821E821C860E94A2
:102D420070198D8781E001C080E0DF91CF911F91E2
:0C2D52000F91FF90EF90DF90CF9008955C
:102D5E00E0E4F8E088E893E180879187158280ECC3
:102D6E00868383E08783138614861686158689E00C
:102D7E009AE18093B7409093B8408AE09AE18093AD
:102D8E00B5409093B6408BE09AE18093B340909318
:102D9E00B4401092B9401092BA40E091C740F09101
:0C2DAE00C84086E190E480839183089582
:102DBA00E0ECF1E015821682178289EA81878AE0BF
:102DCA00828715861686118A128A158A168A118EA4
:102DDA00128E158E168E11821282138288EC8387C8
:102DEA001786138A178A138E178E81E480871486B2
:102DFA00108A148A108E148E81E0808380E00895F0
:102E0A00CF93DF93E7E4F0E490E8908381838AEB41
:102E1A0098E0A0E0FC015A2F0E948C19FB0142E0C5
:102E2A0050E067E470E48CE390E0099584EC98E064
:102E3A00A0E0FC015A2F0E948C19EB01FE010995B2
:0A2E4A008111FCCFDF91CF910895B4
:102E5400CF93DF93E7E4F0E490E4908381838AEBFB
:102E640098E0A0E0FC015A2F0E948C19FB0142E07B
:102E740050E067E470E48CE390E0099584EC98E01A
:102E8400A0E0FC015A2F0E948C19EB01FE01099568
:0A2E94008111FCCFDF91CF9108956A
:102E9E0080915C4090915D40892B91F0E7E5F0E4E4
:102EAE0085819681019785839683A381B481CD0117
:102EBE000196838394838C918093080983E008950F
:102ECE0080916240882321F01092624081E0089543
:062EDE000E94B6170895E2
:102EE400E0E0FAE010A611A685E190E082A793A79E
:102EF4008AE090E084A795A710A211A283E68183BB
:102F0400128213821482158216821782168686E034
:102F14008187128613868FE190E086A397A3178694
:042F2400108208957A
:102F2800A1E21A2EAA1BBB1BFD010DC0AA1FBB1FC5
:102F3800EE1FFF1FA217B307E407F50720F0A21B37
:102F4800B30BE40BF50B661F771F881F991F1A94A4
:102F580069F760957095809590959B01AC01BD01CE
:042F6800CF010895F8
:102F6C00E0E0F9E0848183608483A7E5B0E41C92FF
:102F7C008FEF90E011968D939C93129713961D9260
:102F8C001C92149717961D921C9218971D961C92C2
:102F9C008581806C858385818160858380E008953F
:102FAC00E0E4F1E081818111FDCFE0E4F1E089E919
:102FBC0099E184879587108611868287938782E0B2
:102FCC008783828381E0808381898111FDCF109278
:042FDC005201089501
:102FE000E0E0F9E01082128287E186831782108682
:102FF00081EC838315821482848188608483858137
:10300000816085838CEE99E1809373409093744046
:02301000089521
:10301200A0E0B0E0EFE0F8E10C9432189E012B5FE3
:103022003F4FF9014191519161919F01E091C74058
:10303200F091C840808191810E948318E2E00C9453
:02304200AB18C9
:103044002F923F924F925F926F927F928F929F92B4
:10305400AF92BF92CF92DF92EF92FF920F931F93A2
:10306400CF93DF93CDB7DEB7CA1BDB0BCDBFDEBF7B
:023074000994BD
:10307600E0E0F6E01182128213821482168613862D
:103086001486108680E4818782E085838FEF9FE037
:10309600848B958B128A138A81E0808380E0089561
:1030A600E0E0F9E01082128287E1868313821582BE
:1030B600178214821086848188608483858181606A
:1030C60085838CEE99E180937340909374400895C4
:1030D600CF93DF93D0EB8D2F0E94051780E00E94DF
:1030E600051780E10E940517C1E880E00E942A17B3
:1030F600C150D9F7DF5FD83B71F7DF91CF910895C3
:10310600A2E0B0E0E9E8F8E10C9430188C012983DC
:103116003A839E012F5F3F4F0E94F511F8012081EF
:1031260024FF02C08FEF9FEF2296E4E00C94A918CB
:103136002A88398848885F846E847D848C849B8441
:10314600AA84B984C884DF80EE80FD800C811B814F
:10315600AA81B981CE0FD11DCDBFDEBFED01089585
:103166000E94FC130E94510A0E943B180E94DD1621
:103176000E94F0170E94D6170E944F190E947217DC
:0E3186000E94AF160E94A6190E941219089509
:10319400CF93C82F80EB860F0E9405178C2F829542
:1031A4008F7080610E9405178C2F8E7081600E9441
:0631B4000517CF910895FC
:1031BA00A0E0B0E0E3EEF8E10C9432189E01265F3D
:1031CA003F4F4F81588569858D819E810E944319A1
:0631DA00E2E00C94AB18CA
:1031E0009B01482FA82FCB01FC015A2F0E94BD192B
:1031F000662319F00196A11DF7CF642FA901841B46
:04320000950B08958D
:10320400E0E0F6E0808781E082870E94D919882374
:10321400E1F3E0E0F6E08089918921E025870895D3
:1032240040E068ED80E191E00E94CF19E0E1F1E037
:0A32340012821382789480E008955E
:10323E0080915740811105C080910509809581705C
:08324E0001C081E081700895C8
:10325600E0E0F9E083818E7F8383838181608383CD
:083266001092574080E008952A
:10326E00CF93C82F0E94C4198823E1F3C09342085C
:08327E0080E090E0CF9108957B
:103286000F931F9389019A01462F6FEF7FE70E94E4
:083296005E111F910F910895D4
:10329E00E0E4F9E081E8818385E380831282109275
:0632AE00CB4013820895DD
:1032B400009741F0EFE6F7E13197F1F700C0000025
:0632C4000197C1F7089517
:1032CA00EC010E940D1A0E940C1ACE010E940E1ADD
:0632DA00CE010E94E9197B
:1032E0008091584090915940880F816080930709E0
:0432F00084E00895D9
:1032F40010925740E0E0F9E085818160858388E0A1
:0233040008952A
:103306008091584090915940880F8093070983E037
:02331600089518
:1033180057FD04C05BBF67917791089561917191E2
:02332800089506
:10332A009C01215631092A31310510F48F759927EC
:02333A000895F4
:10333C00E0E0F9E08581806C85830E942B1908956B
:10334C00E0EAF0E0148285E08083128280E0089548
:10335C009C01215431092A31310508F48062089509
:0E336C00009721F08093734090937440089571
:0E337A0057FD03C05BBF679108956081089501
:0C3388008091440885FB882780F9089597
:0A339400E7E5F0E48485148608954F
:0A339E001BBEFC0164BF40830895CC
:0A33A8008093A7409093A840089579
:0833B20080910D068170089561
:0833BA0081E08093CE400895EC
:0633C2000E94B6170895F9
:0633C80080934409089502
:0433CE000C9400005B
:0433D2000E94BF0096
:0233D600189548
:0233D800089556
:0233DA00089554
:0233DC00089552
:0233DE00089550
:0233E00008954E
:0233E20008954C
:0233E40008954A
:0233E600089548
:0233E800089546
:0233EA00089544
:0233EC00089542
:0233EE00089540
:0233F00008953E
:0233F20008953C
:0233F40008953A
:0233F600089538
:0233F800089536
:0233FA00089534
:0233FC00089532
:0233FE00089530
:0234000008952D
:0234020008952B
:02340400089529
:02340600089527
:02340800089525
:02340A00089523
:02340C00089521
:02340E0008951F
:0234100008951D
:0234120008951B
:02341400089519
:02341600089517
:02341800089515
:02341A00089513
:02341C00089511
:10341E00030000000000000000000000003719004B
:01342E00009D
:02342F00081A79
:02343100071A78
:02343300061A77
:02343500051A76
:023437005A0039
:02343900C94088
:02000004008278
:090000000000000000C80000002F
:00000001FF
