:020000040000fa
:080000000002040000000000f2
:020000040000fa
:040008004a040000a6
:020000040000fa
:04000c008c04000060
:020000040000fa
:04001000cc0400001c
:020000040000fa
:040014006a0400007a
:020000040000fa
:04001800ac04000034
:020000040000fa
:04001c007205000069
:020000040000fa
:04002000ec040000ec
:020000040000fa
:040024007205000061
:020000040000fa
:04002800720500005d
:020000040000fa
:04002c0006040000c6
:020000040000fa
:040030007205000055
:020000040000fa
:040034007205000051
:020000040000fa
:04003800720500004d
:020000040000fa
:04003c007205000049
:020000040000fa
:040040007205000045
:020000040000fa
:040044007205000041
:020000040000fa
:04004800720500003d
:020000040000fa
:04004c007205000039
:020000040000fa
:040050007205000035
:020000040000fa
:040054007205000031
:020000040000fa
:04005800720500002d
:020000040000fa
:04005c007205000029
:020000040000fa
:040060007205000025
:020000040000fa
:040064007205000021
:020000040000fa
:04006800540500003b
:020000040000fa
:04006c003605000055
:020000040000fa
:040070007205000015
:020000040000fa
:040074007205000011
:020000040000fa
:04007800720500000d
:020000040000fa
:04007c007205000009
:020000040000fa
:040080007205000005
:020000040000fa
:040084007205000001
:020000040000fa
:0400880072050000fd
:020000040000fa
:04008c0072050000f9
:020000040000fa
:0400900072050000f5
:020000040000fa
:0400940072050000f1
:020000040000fa
:0400980072050000ed
:020000040000fa
:04009c0072050000e9
:020000040000fa
:0400a00072050000e5
:020000040000fa
:0400a40072050000e1
:020000040000fa
:0400a80072050000dd
:020000040000fa
:0400ac0072050000d9
:020000040000fa
:0400b00072050000d5
:020000040000fa
:0400b40072050000d1
:020000040000fa
:0400b80072050000cd
:020000040000fa
:0400bc0072050000c9
:020000040000fa
:0400c00072050000c5
:020000040000fa
:0400c40072050000c1
:020000040000fa
:0400c80072050000bd
:020000040000fa
:0400cc0072050000b9
:020000040000fa
:0400d00072050000b5
:020000040000fa
:0400d40072050000b1
:020000040000fa
:0400d80072050000ad
:020000040000fa
:0400dc0072050000a9
:020000040000fa
:0400e00072050000a5
:020000040000fa
:0400e40072050000a1
:020000040000fa
:0400e800720500009d
:020000040000fa
:0400ec007205000099
:020000040000fa
:0400f0007205000095
:020000040000fa
:0400f4007205000091
:020000040000fa
:0400f800720500008d
:020000040000fa
:0400fc007205000089
:020000040000fa
:040100007205000084
:020000040000fa
:040104007205000080
:020000040000fa
:04010800720500007c
:020000040000fa
:04010c007205000078
:020000040000fa
:040110007205000074
:020000040000fa
:040114007205000070
:020000040000fa
:04011800720500006c
:020000040000fa
:04011c007205000068
:020000040000fa
:040120007205000064
:020000040000fa
:040124007205000060
:020000040000fa
:04012800720500005c
:020000040000fa
:04012c007205000058
:020000040000fa
:040130007205000054
:020000040000fa
:040134007205000050
:020000040000fa
:04013800720500004c
:020000040000fa
:04013c007205000048
:020000040000fa
:040140007205000044
:020000040000fa
:040144007205000040
:020000040000fa
:04014800720500003c
:020000040000fa
:04014c007205000038
:020000040000fa
:040150007205000034
:020000040000fa
:040154007205000030
:020000040000fa
:04015800720500002c
:020000040000fa
:04015c007205000028
:020000040000fa
:040160007205000024
:020000040000fa
:040164007205000020
:020000040000fa
:04016800720500001c
:020000040000fa
:04016c007205000018
:020000040000fa
:040170007205000014
:020000040000fa
:040174007205000010
:020000040000fa
:04017800720500000c
:020000040000fa
:04017c007205000008
:020000040000fa
:040180007205000004
:020000040000fa
:040184007205000000
:020000040000fa
:0401880072050000fc
:020000040000fa
:04018c0072050000f8
:020000040000fa
:0401900072050000f4
:020000040000fa
:0401940072050000f0
:020000040000fa
:0401980072050000ec
:020000040000fa
:04019c0072050000e8
:020000040000fa
:0401a00072050000e4
:020000040000fa
:0401a40072050000e0
:020000040000fa
:0401a80072050000dc
:020000040000fa
:0401ac0072050000d8
:020000040000fa
:0401b00072050000d4
:020000040000fa
:0401b40072050000d0
:020000040000fa
:0401b80072050000cc
:020000040000fa
:0401bc0072050000c8
:020000040000fa
:0401c00072050000c4
:020000040000fa
:0401c40072050000c0
:020000040000fa
:0401c80072050000bc
:020000040000fa
:0401cc0072050000b8
:020000040000fa
:0401d00072050000b4
:020000040000fa
:0401d40072050000b0
:020000040000fa
:0401d80072050000ac
:020000040000fa
:0401dc0072050000a8
:020000040000fa
:0401e00072050000a4
:020000040000fa
:0401e40072050000a0
:020000040000fa
:0401e800720500009c
:020000040000fa
:0401ec007205000098
:020000040000fa
:0401f0007205000094
:020000040000fa
:0401f4007205000090
:020000040000fa
:0401f800720500008c
:020000040000fa
:0401fc007205000088
:020000040000fa
:040200007205000083
:020000040000fa
:04020400720500007f
:020000040000fa
:04020800720500007b
:020000040000fa
:04020c007205000077
:020000040000fa
:040210007205000073
:020000040000fa
:04021400720500006f
:020000040000fa
:04021800720500006b
:020000040000fa
:04021c007205000067
:020000040000fa
:040220007205000063
:020000040000fa
:04022400720500005f
:020000040000fa
:04022800720500005b
:020000040000fa
:04022c007205000057
:020000040000fa
:040230007205000053
:020000040000fa
:04023400720500004f
:020000040000fa
:04023800720500004b
:020000040000fa
:04023c007205000047
:020000040000fa
:040240007205000043
:020000040000fa
:04024400720500003f
:020000040000fa
:04024800720500003b
:020000040000fa
:04024c007205000037
:020000040000fa
:040250007205000033
:020000040000fa
:04025400720500002f
:020000040000fa
:04025800720500002b
:020000040000fa
:04025c007205000027
:020000040000fa
:040260007205000023
:020000040000fa
:04026400720500001f
:020000040000fa
:04026800720500001b
:020000040000fa
:04026c007205000017
:020000040000fa
:040270007205000013
:020000040000fa
:04027400720500000f
:020000040000fa
:04027800720500000b
:020000040000fa
:04027c007205000007
:020000040000fa
:040280007205000003
:020000040000fa
:0402840072050000ff
:020000040000fa
:0402880072050000fb
:020000040000fa
:04028c0072050000f7
:020000040000fa
:0402900072050000f3
:020000040000fa
:0402940072050000ef
:020000040000fa
:0402980072050000eb
:020000040000fa
:04029c0072050000e7
:020000040000fa
:0402a00072050000e3
:020000040000fa
:0402a40072050000df
:020000040000fa
:0402a80072050000db
:020000040000fa
:0402ac0072050000d7
:020000040000fa
:0402b00072050000d3
:020000040000fa
:0402b40072050000cf
:020000040000fa
:0402b80072050000cb
:020000040000fa
:0402bc0072050000c7
:020000040000fa
:0402c00072050000c3
:020000040000fa
:0402c40072050000bf
:020000040000fa
:0402c80072050000bb
:020000040000fa
:0402cc0072050000b7
:020000040000fa
:0402d00072050000b3
:020000040000fa
:0402d40072050000af
:020000040000fa
:0402d80072050000ab
:020000040000fa
:0402dc0072050000a7
:020000040000fa
:0402e00072050000a3
:020000040000fa
:0402e400720500009f
:020000040000fa
:0402e800720500009b
:020000040000fa
:0402ec007205000097
:020000040000fa
:0402f0007205000093
:020000040000fa
:0402f400720500008f
:020000040000fa
:0402f800720500008b
:020000040000fa
:0402fc007205000087
:020000040000fa
:040300007205000082
:020000040000fa
:04030400720500007e
:020000040000fa
:04030800720500007a
:020000040000fa
:04030c007205000076
:020000040000fa
:040310007205000072
:020000040000fa
:04031400720500006e
:020000040000fa
:04031800720500006a
:020000040000fa
:04031c007205000066
:020000040000fa
:040320007205000062
:020000040000fa
:10040000ef0721000eff27000e01880000002000ea
:100410000000e000020032000001200020028800fd
:1004200014000700b10107000000e00003003a00db
:1004300080ff2100010020000200370000002000a2
:1004400001002000810f70004220ae000f00070065
:10045000000020000000e0004220ae00000002008a
:100460000000000070120200000000000040da00ee
:100470000000fe00a09420000000e0000200320016
:10048000002020009001880000000600a1028800e2
:10049000800478000000eb001f003700e284440075
:1004a00054a0b4009905ba00e284440054a0b400fa
:1004b0009906ba00e284440054a0b4000006eb00a0
:1004c000476fde00fd07b200ae018800636ce100fb
:1004d00003003a000ad801000000eb000e003700cc
:1004e000606ce10008003a00004deb000a05e800ee
:1004f000020039003420ec000af0a0008b05e9006e
:10050000f9ff3e00040037006168e100010032009d
:100510000086eb000b00070019c7ba001905ba00e6
:100520000e04e00003003a000a00e000dbff3a009e
:1005300000000600fe07b200ae0288008a047800c0
:10054000f5ff37000cd0a300e20f4d001c003b006c
:1005500089027800354dba000a05e800020039002a
:100560003420ec000af0a0008b05e9000f003200f7
:10057000254dba000a05e800020039003420ec00dd
:100580000af0a0008b05e900080032000c00e00032
:100590000600320015cdba000a05e8000200390055
:1005a0003420ec000af0a0008b05e9008984e80003
:1005b00054a0b4000b00e000e2ff3a000000060087
:1005c0009902ba00055d78008b05e900f7ff32005b
:1005d000c82ade00055d78008b05e900f3ff3200d4
:1005e0000c00e000f1ff320019ddba00eeff370029
:1005f0006100e10001003200100005005400f80025
:1006000020102000a002880000f92b001000ba0082
:100610005400f9000700260000f0a6008703d1006f
:100620000703780001c4fe000003eb000120200056
:1006300091018800e1192a00111303008703e900e2
:10064000fdff3a0000f0a7000000050000f0a00048
:1006500080c4fe0086037800f3ff37000408200002
:10066000010037000002eb006100e10001003200f0
:10067000100005003200f8003400f8008102780014
:10068000930188003200be000100e0000c0032003f
:100690000470a70000f0a00032037800c733de002a
:1006a000848343004220af008703e800a70188004d
:1006b000f607b2007f30e100040032002000200085
:1006c0003400f9003200f900000006008100e90062
:1006d0000500e00003003a00018009003210030029
:1006e000e8ff37000180090032900300d561ae00b9
:1006f000e4ff370030002000f1ff370050052000f4
:10070000b00e8800a00a2000b00e8800d3e1a80037
:100710000000060050052000b00e8800a00a20004e
:10072000b00e8800d3e1a90000000600f215040015
:1007300000000000fc15040000000000ea150400a1
:1007400000000000c2150400000000005014040066
:10075000000000008a14040000000000a614040039
:10076000000000000c1504000000000058150400f3
:1007700000000000bc1404000000000096150400f6
:100780000000000062140400000000006c1404006b
:100790000000000076140400000000008014040033
:1007a00000000000cc14040000000000d614040077
:1007b00000000000e0140400000000003c140400ed
:1007c00000000000ea14040000000000ce1b04003a
:1007d000000000003221040000000000441c04005e
:1007e00000000000ac1c040000000000fa1c040023
:1007f00000000000441d0400000000002c1f040045
:10080000000000001e0f0400000000003600f80089
:10081000809fbe00829fbe00849fbe00869fbe0058
:100820000000fa00408080000000e800408088005e
:1008300040808000e10f50000600360030808000cc
:100840000000e00002003200308080000000010063
:100850000830ef00d0072100104078008040e80009
:10086000d007210001487800c007210011c0b30063
:10087000014878000028a9000080fa004f03be005c
:100880004f02be004f01be004f00be003600f9000f
:10089000004006003600f800809fbe00829fbe0028
:1008a000849fbe00869fbe000000fa00c028a900f9
:1008b0000000eb00950e07000080fa004f03be0019
:1008c0004f02be004f01be004f00be003600f900cf
:1008d000004006003600f800809fbe00829fbe00e8
:1008e000849fbe00869fbe000000fa008c0e0700a9
:1008f000c048a90010002000840e07000080fa0004
:100900004f03be004f02be004f01be004f00be00ad
:100910003600f900004006003600f800809fbe0057
:10092000829fbe00849fbe00869fbe000000fa002a
:10093000c068a90020002000740e07000080fa00a3
:100940004f03be004f02be004f01be004f00be006d
:100950003600f900004006003600f800809fbe0017
:10096000829fbe00849fbe00869fbe000000fa00ea
:10097000c088a90030002000640e07000080fa0043
:100980004f03be004f02be004f01be004f00be002d
:100990003600f900004006003600f800809fbe00d7
:1009a000829fbe00849fbe00869fbe000000fa00aa
:1009b000c608a90070002000540e07000080fa004d
:1009c0004f03be004f02be004f01be004f00be00ed
:1009d0003600f900004006003600f800809fbe0097
:1009e000829fbe00849fbe00869fbe000000fa006a
:1009f0002146800000102000008060000000e00020
:100a000003003200c508a900c00020003f0e070007
:100a10002146800000022000008060000000e0000d
:100a200003003200c4a8a90090002000370e070080
:100a300020468000700060000000e00003003200eb
:100a4000c488a900a0002000300e070020468000c6
:100a5000610060000000e00003003200c408a9004b
:100a6000b0002000290e0700ffff37003600f80015
:100a7000809fbe00829fbe00849fbe00869fbe00f6
:100a80000000fa0010808000000001000080fa00e1
:100a90004f03be004f02be004f01be004f00be001c
:100aa0003600f900004006003600f800809fbe00c6
:100ab000829fbe00849fbe00869fbe000000fa0099
:100ac00020808000000001000080fa004f03be007b
:100ad0004f02be004f01be004f00be003600f900bd
:100ae000004006000040da000000fe0000000500a3
:020000040000fa
:100af00000000000000000000000000000000000f6
:100b0000002f0000000000000000000007000000af
:100b100007000000001400007f1400007f14000094
:100b2000002400002a7f00002a120000006200005a
:100b3000640800001323000000360000495500003f
:100b4000225000000000000005030000000000002b
:100b5000000000001c220000410000000000000016
:100b6000412200001c00000000140000083e0000ac
:100b70000814000000080000083e000008080000fb
:100b80000000000000a0000060000000000800005d
:100b90000808000008080000000000006060000075
:100ba0000000000000200000100800000402000007
:100bb000003e000051490000453e000000000000da
:100bc000427f000040000000004200006151000030
:100bd0004946000000210000414500004b31000063
:100be00000180000141200007f1000000027000011
:100bf0004545000045390000003c00004a4900001e
:100c000049300000000100007109000005030000e8
:100c10000036000049490000493600000006000087
:100c200049490000291e000000000000363600007f
:100c30000000000000000000563600000000000028
:100c40000008000014220000410000000014000011
:100c500014140000141400000000000041220000e1
:100c60001408000000020000015100000906000005
:100c70000032000049590000513e0000007c000095
:100c800012110000127c0000007f000049490000a2
:100c900049360000003e00004141000041220000b2
:100ca000007f000041410000221c0000007f000086
:100cb0004949000049410000007f00000909000087
:100cc00009010000003e000041490000497a00008f
:100cd000007f000008080000087f000000000000fe
:100ce000417f000041000000002000004041000062
:100cf0003f010000007f00000814000022410000b6
:100d0000007f00004040000040400000007f0000e5
:100d1000020c0000027f0000007f000004080000b9
:100d2000107f0000003e000041410000413e0000f5
:100d3000007f00000909000009060000003e0000d5
:100d400041510000215e0000007f000009190000f1
:100d500029460000004600004949000049310000d2
:100d600000010000017f000001010000003f0000c1
:100d700040400000403f0000001f000020400000f5
:100d8000201f0000003f000040380000403f0000ee
:100d90000063000014080000146300000007000056
:100da00008700000080700000061000051490000c1
:100db00045430000000000007f41000041000000aa
:100dc000005500002a5500002a55000000000000d0
:100dd000414100007f00000000040000020100000b
:100de00002040000004000004040000040400000bd
:100df00000000000010200000400000000200000cc
:100e00005454000054780000007f00004844000063
:100e10004438000000380000444400004420000032
:100e20000038000044440000487f00000038000003
:100e30005454000054180000000800007e0900000f
:100e40000102000000180000a4a40000a47c00001f
:100e5000007f00000804000004780000000000008b
:100e6000447d00004000000000400000808400003d
:100e70007d000000007f00001028000044000000fa
:100e800000000000417f000040000000007c0000e6
:100e90000418000004780000007c00000804000032
:100ea000047800000038000044440000443800008a
:100eb00000fc00002424000024180000001800009a
:100ec0002424000018fc0000007c0000080400003e
:100ed00004080000004800005454000054200000a2
:100ee000000400003f44000040200000003c0000df
:100ef00040400000207c0000001c0000204000005a
:100f0000201c0000003c000040300000403c00007d
:100f1000004400002810000028440000001c0000cd
:100f2000a0a00000a07c0000004400006454000069
:100f30004c440000141400001414000014140000a9
:100f400000000000000000000000000000000000a1
:100f50000000000000000000000000000000000091
:100f60000000000000f80000000000000000000089
:100f7000000000000033000030000000000000000e
:100f8000001000000c060000100c0000060000001d
:100f90000000000000000000000000000000000051
:100fa00040c0000078400000c07800004000000011
:100fb000043f0000040400003f040000040000009f
:100fc0000070000088fc00000830000000000000f5
:100fd0000018000020ff0000211e0000000000009b
:100fe000f0080000f0000000e01800000000000021
:100ff000002100001c0300001e2100001e00000054
:1010000000f00000088800007000000000000000f0
:101010001e210000232400001927000021100000d9
:10102000101600000e00000000000000000000008c
:1010300000000000000000000000000000000000b0
:101040000000000000e000001804000002000000a2
:101050000000000000070000182000004000000011
:101060000002000004180000e00000000000000082
:1010700000400000201800000700000000000000f1
:101080004040000080f00000804000004000000070
:1010900002020000010f0000010200000200000037
:1010a0000000000000f00000000000000000000050
:1010b00001010000011f000001010000010000000b
:1010c0000000000000000000000000000000000020
:1010d00080b0000070000000000000000000000070
:1010e0000000000000000000000000000000000000
:1010f00000010000010100000101000001010000e9
:1011000000000000000000000000000000000000df
:10111000003000003000000000000000000000006f
:1011200000000000000000008060000018040000c3
:101130000060000018060000010000000000000030
:1011400000e000001008000008100000e0000000af
:10115000000f000010200000201000000f00000011
:101160000010000010f80000000000000000000067
:1011700000200000203f00002020000000000000b0
:1011800000700000080800000888000070000000df
:101190000030000028240000222100003000000060
:1011a000003000000888000088480000300000007f
:1011b0000018000020200000201100000e00000098
:1011c00000000000c020000010f800000000000037
:1011d0000007000004240000243f00002400000059
:1011e00000f80000088800008808000008000000df
:1011f0000019000021200000201100000e00000056
:1012000000e00000108800008818000000000000c6
:10121000000f000011200000201100000e0000004f
:101220000038000008080000c8380000080000006e
:1012300000000000003f000000000000000000006f
:10124000007000008808000008880000700000009e
:10125000001c000022210000212200001c000000d0
:1012600000e000001008000008100000e00000008e
:101270000000000031220000221100000f000000d9
:101280000000000000c00000c000000000000000de
:1012900000000000003000003000000000000000ee
:1012a00000000000008000000000000000000000be
:1012b000000000008060000000000000000000004e
:1012c0000000000080400000201000000800000026
:1012d00000010000020400000810000020000000cf
:1012e000404000004040000040400000400000003e
:1012f00004040000040400000404000004000000d2
:1013000000080000102000004080000000000000e5
:10131000002000001008000004020000010000008e
:10132000007000004808000008080000f0000000fd
:101330000000000000300000360100000000000046
:10134000c0300000c8280000e8100000e0000000e5
:101350000718000027240000231400000b000000e1
:1013600000000000c0380000e000000000000000a5
:10137000203c00002302000002270000382000006b
:1013800008f8000088880000887000000000000055
:10139000203f000020200000201100000e0000006f
:1013a000c0300000080800000808000038000000f5
:1013b0000718000020200000201000000800000096
:1013c00008f800000808000008100000e000000015
:1013d000203f000020200000201000000f0000002f
:1013e00008f8000088880000e808000010000000ed
:1013f000203f0000202000002320000018000000f3
:1014000008f8000088880000e808000010000000cc
:10141000203f00002000000003000000000000004a
:10142000c03000000808000008380000000000007c
:101430000718000020200000221e0000020000000b
:1014400008f800000800000000080000f80800008c
:10145000203f000021010000012100003f2000008a
:101460000008000008f80000080800000000000064
:1014700000200000203f00002020000000000000ad
:101480000000000008080000f80800000800000044
:10149000c0800000808000007f000000000000008d
:1014a00008f8000088c000002818000008000000ac
:1014b000203f00002001000026380000200000002e
:1014c00008f8000008000000000000000000000014
:1014d000203f0000202000002020000030000000fd
:1014e00008f80000f8000000f8f80000080000000c
:1014f000203f0000003f0000003f000020000000ef
:1015000008f8000030c0000000080000f8080000e3
:10151000203f000020000000071800003f000000ee
:10152000e01000000808000008100000e0000000c3
:101530000f10000020200000201000000f0000000d
:1015400008f800000808000008080000f00000008b
:10155000203f000021010000010100000000000008
:10156000e01000000808000008100000e000000083
:101570000f18000024240000385000004f00000025
:1015800008f80000888800008888000070000000cb
:10159000203f000020000000030c0000302000006d
:1015a00000700000880800000808000038000000f3
:1015b0000038000020210000212200001c00000053
:1015c0001808000008f800000808000018000000d3
:1015d00000000000203f000020000000000000008c
:1015e00008f800000800000000080000f8080000eb
:1015f000001f000020200000202000001f0000002d
:10160000087800008800000000c8000038080000ca
:1016100000000000073800000e010000000000007c
:10162000f808000000f8000000080000f8000000c2
:10163000033c000007000000073c0000030000001e
:10164000081800006880000080680000180800008a
:10165000203000002c030000032c0000302000008c
:1016600008380000c8000000c8380000080000006a
:1016700000000000203f00002000000000000000eb
:101680001008000008080000c8380000080000002a
:101690002038000026210000202000001800000053
:1016a0000000000000fe0000020200000200000036
:1016b00000000000007f00004040000040000000eb
:1016c000000c000030c0000000000000000000001e
:1016d000000000000001000006380000c00000000b
:1016e0000002000002020000fe00000000000000f6
:1016f00000400000404000007f00000000000000ab
:1017000000000000040200000202000004000000cb
:1017100000000000000000000000000000000000c9
:1017200000000000000000000000000000000000b9
:1017300080800000808000008080000080800000a9
:101740000002000002040000000000000000000091
:101750000000000000000000000000000000000089
:101760000000000080800000808000000000000079
:101770000019000024220000222200003f20000067
:1017800008f8000000800000800000000000000059
:10179000003f000011200000201100000e0000009a
:1017a00000000000008000008080000000000000b9
:1017b000000e000011200000202000001100000099
:1017c000000000000080000080880000f800000099
:1017d000000e000011200000201000003f2000003b
:1017e00000000000808000008080000000000000f9
:1017f000001f00002222000022220000130000002f
:101800000080000080f00000888800008818000038
:1018100000200000203f0000202000000000000009
:101820000000000080800000808000008000000038
:10183000006b00009494000094930000600000008e
:1018400008f8000000800000808000000000000018
:10185000203f000021000000002000003f20000089
:1018600000800000989800000000000000000000c8
:1018700000200000203f00002020000000000000a9
:1018800000000000008000009898000000000000a8
:1018900000c0000080800000807f00000000000089
:1018a00008f80000000000008080000080000000b8
:1018b000203f0000240200002d3000002000000026
:1018c0000008000008f80000000000000000000010
:1018d00000200000203f0000202000000000000049
:1018e0008080000080800000808000008000000078
:1018f000203f0000200000003f200000003f0000cb
:101900008080000000800000808000000000000057
:10191000203f000021000000002000003f200000c8
:1019200000000000808000008080000000000000b7
:10193000001f000020200000202000001f000000e9
:101940008080000000800000800000000000000097
:1019500080ff0000a1200000201100000e00000008
:101960000000000000800000808000008000000077
:10197000000e00001120000020a00000ff800000e9
:101980008080000080000000808000008000000057
:10199000202000003f210000200000000100000086
:1019a00000000000808000008080000080000000b7
:1019b000003300002424000024240000190000004b
:1019c0000080000080e00000808000000000000037
:1019d00000000000001f00002020000000000000a8
:1019e00080800000000000000080000080000000f7
:1019f000001f000020200000201000003f200000f9
:101a000080800000800000000080000080800000d6
:101a1000000100000e300000080600000100000078
:101a200080800000008000000080000080800000b6
:101a30000f3000000c0300000c3000000f0000000d
:101a40000080000080000000808000008000000016
:101a500000200000312e00000e31000020000000a8
:101a60008080000080000000008000008080000076
:101a7000808100008e700000180600000100000048
:101a80000080000080800000808000008000000056
:101a900000210000302c0000222100003000000056
:101aa0000000000000000000807c00000202000036
:101ab0000000000000000000003f00004040000067
:101ac0000000000000000000ff0000000000000017
:101ad0000000000000000000ff0000000000000007
:101ae00000020000027c00008000000000000000f6
:101af00000400000403f0000000000000000000027
:101b000000060000010100000202000004040000c1
:101b100000000000000000000000000000000000c5
:101b200020200000fefe0000202000002404000011
:101b300004fc00000404000004040000fc00000099
:101b4000000000003f1f0000188800004430000023
:101b50001f41000040400000407f00001f000000c7
:101b60000808000008fe0000fe08000030f8000031
:101b70002ca70000e4240000f4bc000024e00000d6
:101b800002820000ff7f0000018800008b4a0000f5
:101b9000293800001e3800004b4a00008b08000066
:101ba0001090000090900000909000009090000035
:101bb00010fe000020200000261c00001010000075
:101bc00040400000202000003f20000010100000d6
:101bd000100300001f700000c0800000f020000013
:101be000380a00006a6a00006a7e00007e6a00000f
:101bf0006a6a00006a0a0000380000000000000065
:101c00003f15000015150000153f0000e595000088
:101c100095950000956f0000e02000000000000096
:101c200092c4000008000000fc040000e4a40000ce
:101c3000a4bc0000a4a40000e4e400000400000030
:101c4000f01e0000c0780000bf400000339a000082
:101c500082fe0000020200001b6300000000000082
:101c6000fe2a00002a2a00002a3e00000000000090
:101c70003e2a00002a2a00002afe00000000000080
:101c8000ff000000442500001f05000005050000be
:101c90007f05000085840000807f000000000000b8
:101ca000808400005474000064d400000c00000024
:101cb000c24c000058640000e6500000880000009c
:101cc000008c00008e8a00008a7b00008097000054
:101cd00055640000647400005f860000000000008e
:101ce00010100000f0fe000090100000fcfc00004e
:101cf00044c400004444000044440000c600000006
:101d00000407000001ff0000006100003f830000a5
:101d1000404300002c3000003c47000080000000e1
:101d20006473000050490000433300003343000057
:101d300048320000353600002d35000030350000f7
:101d40000057000061690000746900006e670000c0
:101d5000206600006f720000202e00002e2e000072
:101d6000005900006f75000072200000496e0000ed
:101d70006e6f000076610000746900006f6e0000f5
:041d8000000000005f
:020000040000fa
:101d84000000fa00236ea8000a30ef0004003700b8
:101d940000000000508080000000e80050808800af
:101da40050808000e10f5000f9ff3400236ea90039
:101db4000a30ef000400370000000000508080006b
:101dc4000000e8005080880050808000e30f50003d
:101dd400f9ff34000080fa00000006000000fa0059
:101de400236ea8000a30ef00040037000000000052
:101df400508080000000e8005080880050808000ff
:101e0400e40f5000f9ff3400236ea9000a30ef00fc
:101e14000400370000000000508080000000e8004b
:101e24005080880050808000e10f5000f9ff34009a
:101e34000080fa00000006000000fa00f071800043
:101e4400cc800a00000000000004a2006140600091
:101e54000080fb00610060004c00dd00f171800037
:101e640001c0a10001007000f0718800f0718000d1
:101e7400dd800a00000000000004a2006140600050
:101e84000080fb00610060004d00dd00f171800006
:101e940001d0a10001007000f071880090c1b3006e
:101ea4000cf0b7001070ef001170ef000cd0bf0001
:101eb4000004e00002003d00c8ff070001003700f5
:101ec400afff07000cd0bf008080fb00000420009f
:101ed400008060000000e00002003200bfff070045
:101ee40001003700a6ff07000cd0bf008080fb0074
:101ef40000022000008060000000e00002003200c8
:101f0400b6ff0700010037009dff07000cd0bf009b
:101f14000080fb00700060000000e000020032005e
:101f2400aeff07000100370095ff07000cd0bf008b
:101f34000080fb00680060000000e0000200320046
:101f4400a6ff0700010037008dff07000cd0bf007b
:101f54000080fb00640060000000e000020032002a
:101f64009eff07000100370085ff07000cd0bf006b
:101f74000080fb00620060000000e000020032000c
:101f840096ff0700010037007dff07000cd0bf005b
:101f94000080fb0061006000004078000004e00065
:101fa400020032008dff07000100370074ff0700b4
:101fb40010d0bf000004e00002003d0087ff0700ce
:101fc400010037006eff070010d0bf008080fb00c7
:101fd40000042000008060000000e00002003200e5
:101fe4007eff07000100370065ff070010d0bf0027
:101ff4008080fb0000022000008060000000e00000
:102004000200320075ff0700010037005cff070083
:1020140010d0bf000080fb00700060000000e000f2
:10202400020032006dff07000100370054ff070073
:1020340010d0bf000080fb00680060000000e000da
:102044000200320065ff0700010037004cff070063
:1020540010d0bf000080fb00640060000000e000be
:10206400020032005dff07000100370044ff070053
:1020740010d0bf000080fb00620060000000e000a0
:102084000200320055ff0700010037003cff070043
:1020940010d0bf000080fb006100600000407800a9
:1020a4000004e000020032004cff0700010037008a
:1020b40033ff070011d0bf000004e00002003d0020
:1020c40046ff0700010037002dff070011d0bf00b5
:1020d4008080fb0000042000008060000000e0001d
:1020e400020032003dff07000100370024ff070013
:1020f40011d0bf008080fb0000022000008060003f
:102104000000e0000200320034ff07000100370045
:102114001bff070011d0bf000080fb0070006000af
:102124000000e000020032002cff0700010037002d
:1021340013ff070011d0bf000080fb00680060009f
:102144000000e0000200320024ff07000100370015
:102154000bff070011d0bf000080fb00640060008b
:102164000000e000020032001cff070001003700fd
:1021740003ff070011d0bf000080fb006200600075
:102184000000e0000200320014ff070001003700e5
:10219400fbfe070011d0bf000080fb00610060005f
:1021a400004078000004e000020032000bff07004a
:1021b40001003700f2fe07000c70ef0090c1b3007d
:1021c40010f0b7001170ef000cd0bf000004e00065
:1021d40002003d0001ff070001003700e8fe070090
:1021e4000cd0bf008080fb00000420000080600051
:1021f4000000e00002003200f8fe07000100370092
:10220400dffe07000cd0bf008080fb00000220002e
:10221400008060000000e00002003200effe0700d2
:1022240001003700d6fe07000cd0bf000080fb0081
:10223400700060000000e00002003200e7fe0700ca
:1022440001003700cefe07000cd0bf000080fb0069
:10225400680060000000e00002003200dffe0700ba
:1022640001003700c6fe07000cd0bf000080fb0051
:10227400640060000000e00002003200d7fe0700a6
:1022840001003700befe07000cd0bf000080fb0039
:10229400620060000000e00002003200cffe070090
:1022a40001003700b6fe07000cd0bf000080fb0021
:1022b40061006000004078000004e0000200320089
:1022c400c6fe070001003700adfe070010d0bf00b6
:1022d4000004e00002003d00c0fe070001003700da
:1022e400a7fe070010d0bf008080fb000004200080
:1022f400008060000000e00002003200b7fe07002a
:10230400010037009efe070010d0bf008080fb0054
:1023140000022000008060000000e00002003200a3
:10232400aefe07000100370095fe070010d0bf0085
:102334000080fb00700060000000e000020032003a
:10234400a6fe0700010037008dfe070010d0bf0075
:102354000080fb00680060000000e0000200320022
:102364009efe07000100370085fe070010d0bf0065
:102374000080fb00640060000000e0000200320006
:1023840096fe0700010037007dfe070010d0bf0055
:102394000080fb00620060000000e00002003200e8
:1023a4008efe07000100370075fe070010d0bf0045
:1023b4000080fb0061006000004078000004e00041
:1023c4000200320085fe0700010037006cfe0700a2
:1023d40011d0bf000004e00002003d007ffe0700b2
:1023e4000100370066fe070011d0bf008080fb00ab
:1023f40000042000008060000000e00002003200c1
:1024040076fe0700010037005dfe070011d0bf0013
:102414008080fb0000022000008060000000e000db
:10242400020032006dfe07000100370054fe070071
:1024340011d0bf000080fb00700060000000e000cd
:102444000200320065fe0700010037004cfe070061
:1024540011d0bf000080fb00680060000000e000b5
:10246400020032005dfe07000100370044fe070051
:1024740011d0bf000080fb00640060000000e00099
:102484000200320055fe0700010037003cfe070041
:1024940011d0bf000080fb00620060000000e0007b
:1024a400020032004dfe07000100370034fe070031
:1024b40011d0bf000080fb00610060000040780084
:1024c4000004e0000200320044fe0700010037006f
:1024d4002bfe07000080fa00000006000000fa004e
:1024e4004b070700e0f120005d0607003f8ea800bf
:1024f4003faea900ea0107004103070002e92800f2
:102504008040eb000040eb009f02070010ea280027
:102514000001780021c0b3000040eb009a020700dc
:1025240010eb28000001780041c0b3000040eb002c
:1025340095020700ffff37000400fa00000f78003f
:10254400110798001e0190009e0078000000eb0027
:10255400ad0107000080fa00000006000400fa0044
:10256400000f7800110798001e0190009e0078006b
:1025740010002000a40107000080fa0000000600fb
:102584000400fa00000f7800110798001e01900063
:102594009e007800200020009b0107000080fa00c4
:1025a400000006000400fa00000f780011079800ec
:1025b4001e0190009e007800300020009201070068
:1025c4000080fa00000006000400fa00000f780002
:1025d400110798001e0190009e0078004000200022
:1025e400890107000080fa00000006000400fa00d8
:1025f4002047980010002000000f78009080800091
:10260400620060000000e00032003a003001210066
:10261400ae40900001487800908080000000a10046
:1026240090808800908080000010a0009080880036
:10263400908080000030a10090808800e00020009d
:10264400e0808800401f2000d080880090808000b7
:102654000020a00090808800205f21000081880075
:102664000000eb0060818800205f21001081880059
:102674000000eb0070818800205f21002081880029
:102684000000eb0080818800205f210030818800f9
:102694000000eb0090818800c05f21004081880029
:1026a4000000eb00a08188007403070051030700b9
:1026b400a05e210026040700205c21002a040700f4
:1026c400205c21002e040700310307000000eb000a
:1026d400000f78001e0078000080fa000000060059
:1026e4000200fa00004f7800300121001e487800f3
:1026f4000080fa00000006000200fa00100020002a
:10270400000f780090808000610060000000e0000d
:102714000a003a00908080000010a1009080880098
:102724003001210080c0eb0001487800310307002c
:102734002b030700f1808000010f78001e00780051
:102744000080fa00000006000200fa00004f780042
:10275400230307001e80fb00d08088000c030700c1
:102764000080fa00000006000400fa00000f780060
:102774001107980090808000640060000000e00071
:10278400070032001e007800a08088009e009000a0
:10279400b1808800908080000020a1009080880093
:1027a4000080fa00000006000400fa0020479800a8
:1027b40010002000000f780090808000610060000d
:1027c4000000e00013003a00908080000000a000a8
:1027d400908088000000eb00000f78002e409000ed
:1027e4000004e0000300320010002000e0808800b4
:1027f4000200370020002000e08088004103070029
:10280400e80207000004a2000004e0000100320016
:102814000d0007001e0078000080fa00000006008a
:102824000000fa0010c0b300dfff07000080fa00c8
:10283400000006000000fa000040eb00daff070089
:102844000080fa00000006000000fa0003003700d0
:102854000000eb00f1020700c9000700908080002f
:10286400610060000000e000f9ff3a000080fa0017
:10287400000006000000fa001f030700908080009b
:102884000000a100908088000000eb00f080880028
:10289400e00020000080fa00000006000000fa00ba
:1028a400908080000000a100908088000000eb0070
:1028b400f0808800e00020000080fa00000006009c
:1028c4000000fa0013030700100020000080fa0043
:1028d400000006000000fa000e030700200020009c
:1028e4000080fa00000006000000fa000903070057
:1028f400100020000080fa00000006000000fa002a
:10290400080307000000eb000080fa000000060046
:102914000000fa00908080000030a00090808800c1
:1029240030012100104078000080fb0000004000ce
:10293400004078000004a0001303070050002000aa
:102944000080fa00000006000000fa009080800079
:102954000030a000908088003001210010407800f1
:102964000040400008030700300020000080fa0007
:10297400000006000000fa00908080000030a100f2
:1029840090808800f7020700400020000080fa00d1
:10299400000006000000fa000103070050002000b8
:1029a4000080fa00000006000000fa00010307009e
:1029b400a00020000080fa00000006000000fa00d9
:1029c400fc020700900020000080fa0000000600ce
:1029d4000000fa00908080000030a1009080880000
:1029e40020002000f0808800218180008081800008
:1029f400010001000080e900e10f500002003e00e8
:102a0400b9ff070001003700bcff07000080fa008f
:102a1400000006000000fa00c60207000004e000ff
:102a24000e0032003181800090818000010001009d
:102a3400e20f500003003200e30f500003003200a5
:102a4400040037009eff070016003700a1ff0700af
:102a540014003700a9ff070012003700908080009f
:102a64000030a10090808800a08080009040780011
:102a74000000e800a080880001407800c20207003e
:102a8400b08080000000e900b0808800b080800041
:102a94000000e00002003200300020000100370096
:102aa400600020000080fa00000006000000fa0028
:102ab400881f7800a8808000ae020700004c7800d0
:102ac4000800e800a0808800b08080000000e900d1
:102ad400b0808800b08080000000e0000300320075
:102ae400af020700500020000c00370090808000e7
:102af4000020a00090808800018180006081800017
:102b0400010001000080e900e10f500002003e00d6
:102b1400aaff070001003700a3ff07004f04780055
:102b24000080fa00000006000000fa009080800097
:102b34000020a000908088000181800060818000d6
:102b440001000100e20f50000a003900e30f5000b9
:102b540003003600e40f5000030032000500370084
:102b640061ff07000400370027020700300020003f
:102b74000100370061ff07000080fa000000060032
:102b84000000fa001b0207009080800068006000cb
:102b94000000e00005003200660207000004e000c7
:102ba40002003200f0002000e0808800e080800015
:102bb4008000400080032100008040001000780065
:102bc40000000100e08088000080fa000000060098
:102bd4000000fa00ca0207000080fa0000000600a4
:102be4000200fa00000f7800100020000080fa00b4
:102bf400000006000200fa00000f780050002000d8
:102c04000080fa00000006000600fa00000f7800b9
:102c140011079800220798001e0090000000e000b1
:102c24000f0032009e007800678040008000400062
:102c340020012100008040009e00900001087800df
:102c44009e0078006d80400080004000200121003b
:102c540000804000ae009000010878000e003700ac
:102c64009e00780067804000800040002001210021
:102c740000804000215f2100010878009e00780058
:102c84006d80400080004000200121000080400051
:102c94008000eb00010878000080fa0000000600c4
:102ca4000000fa0020032000fc040700e0cab3007f
:102cb400a101070000c2b3009f01070000c1b300d7
:102cc4009d01070000cbb3009b01070080ccb3003b
:102cd400990107000040eb009701070000c1b30011
:102ce4009501070000c4b3009301070010c8b300a6
:102cf40091010700f0c7b3008f01070010cab300a9
:102d04008d01070060cab3008b01070080cab300bd
:102d140089010700f0c3b3008701070040cab3006c
:102d24008501070030cdb300830107000040eb00ac
:102d34008101070050cdb3007f01070000cfb3002d
:102d44007d01070090cdb3007b01070020c2b300d2
:102d540079010700a0cdb3007701070020c1b300bb
:102d640075010700b0cdb3007301070000c2b300c2
:102d740071010700d0c8b3006f01070040c1b30060
:102d84006d010700f0cab3006b0107000080fa0070
:102d9400000006000600fa0020479800314798001a
:102da40042479800ce40900011479800be409000e2
:102db4002e409000270007000040eb00004f7800f1
:102dc4000a0037001e4090008080fb001e80fb003c
:102dd400c508dd000080400001d9280000804000c3
:102de400104078005d0107001e4fe8001e40780087
:102df400ef4f5000f3ff36003e4090000040e800e3
:102e0400804078002e4090001200070000c1b300fb
:102e1400004f78000a0037001e4090008080fb00bd
:102e24001e80fb00c508dd000080400001d9280099
:102e34000080400010407800480107001e4fe80061
:102e44001e407800ff4f5000f3ff36000080fa0068
:102e5400000006000200fa00004f780011479800b5
:102e64009e40900000cbb30000c040003201070038
:102e74001e80fb004400de00004078000044a000f7
:102e84002d0107001e4078006e4060000004a00081
:102e9400290107000080fa00000006000800fa007b
:102ea4004047980051479800320798000040eb00d3
:102eb400104798002b0037001e4090000080fb0054
:102ec400be009000008040009040780000ceb30027
:102ed40000c0400020479800ce409000e0c7b300f7
:102ee40080cf5000050036000040eb0040479800ba
:102ef4005e4090000040e80050479800de4090009b
:102f04004e409000d3ff07000040eb00004f7800d4
:102f14000b0037002e4090008080fb001e80fb00d9
:102f2400e609b9008200780000804000815728003b
:102f34000080400010407800080107001e4fe800a0
:102f44001e407800e54f5000f2ff36004e409000de
:102f540066404000404798001e4090000040e80052
:102f6400104798001e4090000080fb00be009000b7
:102f740000804000104078000004e000ceff3a00da
:102f84000080fa00000006000800fa00404798009c
:102f940051479800320798000040eb001047980012
:102fa4003f0037001e4090000080fb00be009000f0
:102fb400008040009040780000ceb30000c0400084
:102fc40020479800ce40900080c7b30080cf5000c7
:102fd400050036000040eb00404798005e4090003a
:102fe4000040e80050479800de4090004e409000ba
:102ff40098ff07000040eb00004f78000a003700fc
:103004002e4090008080fb001e80fb00c408dd0081
:1030140000804000017a28000080400010407800c1
:10302400ce0007001e4fe8001e407800e74f500016
:10303400f3ff36005e4090000040e80080407800d6
:103044004e40900083ff070080c0b300004f78001b
:103054000a0037002e4090008080fb001e80fb0099
:10306400c408dd0000804000017a28000080400090
:1030740010407800b90007001e4fe8001e40780099
:10308400ef4f5000f3ff36004e4090006840400080
:10309400404798001e4090000040e8001047980008
:1030a4001e4090000080fb00be00900000804000a5
:1030b400104078000004e000baff3a000080fa00f3
:1030c400000006000a00fa004047980051479800a3
:1030d40062479800430798000040eb0010479800af
:1030e4000040eb00204798003f0037001e4090004e
:1030f4000080fb00ce0090000080400090407800eb
:1031040000ceb30000c0400020479800ce4090009d
:1031140080c7b30080cf5000050036000040eb00ac
:10312400404798005e4090000040e80050479800f7
:10313400de4090004e40900046ff07000040eb0048
:10314400004f78000a0037002e4090008080fb007a
:103154001e80fb00c408dd0000804000017a2800c6
:1031640000804000104078007c0007001e4fe800fb
:103174001e407800e74f5000f3ff36005e40900099
:103184000040e800804078004e40900031ff070086
:1031940080c0b300004f78000a0037002e40900032
:1031a4008080fb001e80fb00c408dd00008040001e
:1031b400017a280000804000104078006700070072
:1031c4001e4fe8001e407800ef4f5000f3ff36001a
:1031d4004e40900068404000404798001e409000d8
:1031e4000040e800104798009e4090006e40900018
:1031f40080cf5000bdff39000080fa0000000600b7
:103204000200fa000040eb00104798001500370058
:103214009e40900000cbb30000c040004600070071
:103224000040eb004400070000c1b3004200070067
:103234000040eb00004f7800030037000040eb0033
:10324400460007001e4fe80000c8b3009e40780007
:1032540080cf5000f9ff36001e4090000040e80087
:10326400104798001e409000e74f5000e8ff3600da
:103274000080fa00000006000000fa00f0cab30063
:103284002d0007000080fa00000006000000fa008c
:10329400e0cab300280007000080fa00000006001e
:1032a4000a00fa0040479800514798006247980086
:1032b40073479800440798000000eb00000f780063
:1032c400de4090003147980015003700be40900062
:1032d4004e409000dffe0700ce409000214798004a
:1032e400080037004e0090001e0040001040780097
:1032f4001e0fe800190007002e4090000040e8006f
:1033040020479800ae4090006e40900080cf50005f
:10331400f4ff39003e4090000040e8003047980038
:10332400be4090007e40900080cf5000e7ff3900ff
:103334000080fa00000006000200fa00004f780046
:103344001e80fb000001780001082000c00320005b
:103354001c0107000080fa00000006000200fa00c9
:10336400004f78001e80fb0000017800010420005b
:10337400c0032000130107000080fa0000000600cb
:103384000000fa0001e2a9000080fa000000060033
:103394000000fa002228a8002208a8000080fa00f1
:1033a400000006000000fa00104180006200600086
:1033b4000000e00004003a00104180006100600059
:1033c4000000e0000200320010002000010037007d
:1033d4000000eb00004078000080fa0000000600c6
:1033e4000000fa002228a9002208a9000080fa009f
:1033f400000006000000fa000228a9000208a90043
:103404000080fa00000006000000fa000228a8006c
:103414000208a8000080fa00000006000200fa007a
:10342400000f780010408000620060000000e0009f
:1034340010003a0010408000610060000000e000cd
:103444000c003a0010408000620060000000e000c0
:1034540008003a0010408000610060000000e000b5
:1034640004003a00c0d421000100200098030700a2
:10347400f4ff37000080fa00000006000000fa00a4
:103484000110800000002800008060000000e000bf
:1034940007003a000422ef00000028000010880012
:1034a400501720008010880010c0b30001003700be
:1034b4000040eb000080fa00000006000000fa0063
:1034c4000110800000002800008060000000e0007f
:1034d40006003a000222a8000202a80000c2a800c6
:1034e40001e2a80010c0b300010037000040eb0067
:1034f4000080fa00000006000000fa000080fa00d4
:10350400000006000000fa000002a8000080fa0093
:10351400000006000000fa000022a8000080fa0063
:10352400000006000000fa000042a8000080fa0033
:10353400000006000000fa0020108000ff800a004e
:10354400000000000080fb0000f0a7000000ea007b
:103554000000ea004f00de00004078000080fa001e
:10356400000006000000fa000062a8000080fa00d3
:10357400000006000000fa00c0108000004078003f
:103584000080fa00000006000200fa00004f7800f4
:103594001e80fb00a01088000080fa0000000600d6
:1035a4000000fa0000a2a9000082a8000080fa002e
:1035b400000006000000fa0000a2a8000082a80093
:1035c4000080fa00000006000000fa000182a80052
:1035d4000080fa00000006000000fa0020108000bd
:1035e400620060000000e00004003a002010800047
:1035f400610060000000e0000200320010002000c2
:10360400010037000000eb00004078000080fa0061
:10361400000006000000fa002010800033800a0039
:10362400000000000080fb0000f0a7000000ea009a
:103634000000ea004f00de00004078000080fa003d
:10364400000006000000fa002110800000022000a3
:103654000080600000f0a7000000ea000000e9001c
:103664004f00de00004078000080fa0000000600f1
:103674000000fa002010800044800a0000000000ce
:103684000080fb0000f0a7000000ea000000ea0050
:103694004f00de00004078000080fa0000000600c1
:1036a4000000fa002010800055800a00000000008d
:1036b4000080fb0000f0a7000000ea000000ea0020
:1036c4004f00de00004078000080fa000000060091
:1036d4000000fa002010800022800a000000000090
:1036e4000080fb0000f0a7000000ea000000ea00f0
:1036f4004f00de00004078000080fa000000060061
:103704000000fa000542a9000080fa00000006004b
:103714000000fa0002a2a8000080fa0000000600df
:103724000000fa0002a2a9000080fa0000000600ce
:103734000000fa0002c2a8000080fa00000006009f
:103744000000fa0002c2a9000080fa00000006008e
:103754000200fa00000f78009e00780001808800c3
:103764000080fa00000006000200fa00000f780052
:103774009e007800118088000080fa000000060096
:103784000200fa00000f78009e0078002180880073
:103794000080fa00000006000200fa00000f780022
:1037a400110020001e007800effb07008000eb00f2
:1037b4000000eb0060fb0700400020000080fa00de
:1037c400000006000400fa00004f7800114798003a
:1037d40022479800000000001e40780083fb070089
:1037e4000000e000fcff32000e80e800800078005a
:1037f400e0bc210050fb07000e00e800110020008f
:10380400d9fb07008000eb00201322005cfb0700bb
:1038140008fc070000000000b7fb0700e10f5000a0
:10382400fdff32000080fa00000006000600fa00e6
:10383400004f78001107980022079800000000004c
:103844001e40780069fb07000000e000fcff320026
:10385400ae0090001e009000c3fb07008000eb0048
:103864002013220046fb0700f2fb070000000000c3
:10387400a1fb0700e10f5000fdff32000080fa00b9
:10388400000006000200fa00000f7800110020007a
:103894001e007800b4fb07008000eb000000eb0082
:1038a40025fb0700200020000080fa00000006002d
:1038b4000800fa006047980071479800a0c2b3005e
:1038c4004047980020002000000f780019003700be
:1038d400000000006e40900044fb07000000e00080
:1038e400fcff3200640047008000780040c42100df
:1038f40011fb070067004700110020009afb070036
:103904008000eb00201322001dfb0700c9fb070009
:1039140079fb0700100798001e009000e10f50008b
:10392400fbff32001e0090000000e00005003200a2
:103934001e0fe9001e0078000000e000e4ff3a00da
:1039440001003700000000004e4090000080fa00a3
:10395400000006000200fa00000f78002100200099
:103964001e00780080fb07008000eb000000eb00e5
:10397400f1fa0700200020000080fa000000060091
:103984000400fa0020479800314798000000000026
:103994002e40900015fb07000000e000fcff320001
:1039a4008e007800c0ca2100e3fa070063004700d4
:1039b400110020006cfb07008000eb0020132200a4
:1039c400effa07009bfb0700000000004afb07001a
:1039d400e10f5000fdff32001e007800c800dd003a
:1039e4004800de00008070000080fa00000006003d
:1039f4000200fa00000f7800210020001e00780069
:103a040059fb07008000eb000000eb00cafa070036
:103a1400400020000080fa00000006000400fa00c4
:103a2400004f78001147980012079800000000002a
:103a34001e407800edfa07000000e000fcff3200b1
:103a44000e80e80080007800a0cf2100bafa0700b9
:103a54000e00e8001100200043fb07008000eb008b
:103a640020132200c6fa070072fb070000000000c2
:103a740021fb0700e10f5000fdff32000080fa0037
:103a8400000006000200fa00000f78001e00780013
:103a9400900078001e0078001000900032fb0700b0
:103aa4008000eb000000eb00a3fa070020002000d8
:103ab4000080fa00000006000a00fa00404798005f
:103ac4005147980032079800430798003e00900041
:103ad40010079800ce009000010f7800000000004d
:103ae4004e409000c1fa07000000e000fcff3200e5
:103af4008e00780040d421008ffa0700650047004b
:103b04001100200018fb07008000eb0020132200a6
:103b14009bfa070047fb070000000000f6fa0700c5
:103b2400e10f5000fdff32000080fa0000000600a3
:103b34000600fa00004f7800110798002207980049
:103b4400000000001e407800a8fa07000000e00012
:103b5400fcff3200ae0090001e00900002fb070044
:103b64002ffb070000000000e3fa0700e10f5000fc
:103b7400fdff32000080fa00000006000000fa0099
:103b8400007c80000080fa00000006000200fa00b9
:103b9400faff0700000f78001e00780024000700d9
:103ba4000004e00002003200000028007100070059
:103bb4001e0078002a0007000004e0000200320022
:103bc400000024006b0007001e007800320007008c
:103bd4000004e0000200320000202000650007001d
:103be4001e0078003a0007000004e00002003200e2
:103bf400000820005f0007001e0078004200070054
:103c04000004e00002003200000420005900070014
:103c14001e0078004a0007000004e00002003200a1
:103c240000012000530007000080fa000000060095
:103c34000400fa00100798000040eb00004f7800e1
:103c44001e0090000000e00002003d0010c0b30020
:103c5400004f78001e4078000080fa000000060043
:103c64000400fa00100798000040eb00004f7800b1
:103c74009e00900000002400008060000000e0002e
:103c84000200320010c0b300004f78001e407800dc
:103c94000080fa00000006000400fa0010079800f3
:103ca4000040eb00004f78009e00900000202000b0
:103cb400008060000000e0000200320010c0b30089
:103cc400004f78001e4078000080fa0000000600d3
:103cd4000400fa00100798000040eb00004f780041
:103ce4009e00900000082000008060000000e000ba
:103cf4000200320010c0b300004f78001e4078006c
:103d04000080fa00000006000400fa001007980082
:103d14000040eb00004f78009e009000000420005b
:103d2400008060000000e0000200320010c0b30018
:103d3400004f78001e4078000080fa000000060062
:103d44000400fa00100798000040eb00004f7800d0
:103d54001e009000700060000000e00002003200cd
:103d640010c0b300004f78001e4078000080fa00b5
:103d7400000006000200fa00000f78009e80ea00ae
:103d8400007c800000806000007c88000080fa00d5
:103d9400000006000000fa00802fef000080fa0007
:103da400000006000000fa000421ef00300d23009b
:103db40040088800203228000008880030808000f5
:103dc4000000e00002003a00c0f2210024000700d5
:103dd4000028a9002028a800c00721008040eb008b
:103de400014878000080fa00000006000200fa0092
:103df400000f78009e00780041088800c007210069
:103e04008040eb00014878000080fa0000000600c2
:103e14000000fa00400880000080fa00000006005c
:103e24000200fa00000f78009e0078002108880044
:103e3400c00721008040eb00014878000080fa00b0
:103e4400000006000000fa00200880000080fa004c
:103e5400000006000000fa000080fa0000000600de
:103e64000200fa00000f78002028a9009e007800c4
:103e7400318088002028a8000080fa000000060095
:103e84000000fa00c00721008040eb0001487800e0
:103e94002028a80001e1a8000080fa000000060024
:103ea4000000fa0001e1a9002028a9000080fa001e
:103eb400000006000200fa00c0072100104f78003d
:103ec4001e4078000004e00003003200c007210017
:103ed4008040eb00014878001e4078000080fa0022
:103ee400000006000000fa00d0072100104078000e
:103ef4000080fb000080fa00000006000000fa00c9
:103f0400d00721008040eb00014878000080fa00cf
:103f1400000006000000fa0010002300307c880036
:103f240060092000407c88008c2fef0010042000e2
:103f3400507c880010102000707c880060092000ec
:103f4400807c880010042000907c88009a2fef0069
:103f5400b82fef00ba2fef00be2fef00002def00b7
:103f6400a42fef00a62fef00a82fef00aa2fef0039
:103f7400ae2fef00b02fef00b22fef0012002000a1
:103f840080072000a109200053f820008049780010
:103f940081497800824978000001eb006004200028
:103fa4007105200043f82000804978008149780099
:103fb400824978000080fa00000006000000fa0040
:103fc400707c8000ee800a00000000000080fb008e
:103fd40000f0a7000000ea000000ea004f00de0045
:0c3fe400004078000080fa000000060099
:020000040000fa
:103ff00038100000200000008200000050148a00e9
:1040000014a614000c15580015bc14009615620077
:10401000146c14007614800014cc1400d614e00044
:10402000143c1400ea1400001210000026000000e6
:10403000800000007c1000000200000080000000f2
:10404000061000000400000080000000581000006e
:1040500020000000800000000e10000002000000a0
:1040600082000000ffff00000010000006000000ba
:10407000800000000a100000040000008000000022
:1040800010100000020000008200000040800000cc
:104090007810000004000000800000000000000014
:020000040000fa
:1040a0000200fa00000f780003003700804f220062
:1040b00011002000870007001e00780000f0a70014
:1040c0000000ea000000ea004f00de000040780037
:1040d0001e0fe9000004e000f4ff3a000080fa003f
:1040e000000006000200fa00000f7800050037000b
:1040f00000962000010020007600070001fe2f003e
:104100001e8f40001e007800ff0f5000f8ff3e0099
:1041100003003700b0042000010020006d000700fc
:104120001e00780000f0a7000000ea000000ea008e
:104130004f00de00004078001e0fe9000004e000a0
:10414000f4ff3a000080fa00000006000000fa00c8
:10415000062eef00222eef003e2eef005a2eef002b
:10416000f001200010708800d07f2f00f0708800d0
:10417000f0ff2000d071880020502200b07288002b
:104180000c2eef00282eef00442eef00602eef00e3
:104190000a2eef00262eef00422eef005e2eef00db
:1041a000082eef00242eef00402eef005c2eef00d3
:1041b000f001200000708800d0392000e0708800f5
:1041c000f00c2000c071880000402200a07288001e
:1041d0000080fa00000006000200fa00000f7800dc
:1041e00021028000200f2000008060001e0070006f
:1041f000200288000080fa00000006000000fa009b
:10420000c3e8a80000000000000000000080fa00e1
:10421000000006000000fa00ccff07003eff070088
:104220001a000700e0fe0700f4ff0700000220006c
:10423000e9ff07000080fa00000006000200fa0013
:10424000000f7800100020000080fa000000060037
:104250000200fa00000f7800500020000080fa00f1
:10426000000006000200fa00000f78003000200075
:104270000080fa00000006000200fa00000f78003b
:10428000200020000080fa00000006000000fa0074
:1042900041428000f0f82f00008060000040a00044
:1042a000404288004142800080ff2f000080600073
:1042b0000000a0004042880001428000f0f82f007a
:1042c000008060000040a000004288000080fa00ea
:0442d00000000600e4
:020000040000fa
:1042d400f03fb1000180b10006003500ee03090093
:1042e40000000000403fb1000180b100fbff3d0031
:1042f4001000b000203fb00002003500008009002b
:084304000000000000000600ab
:020000040000fa
:10430c000200fa00000f78009e007800718088008f
:10431c00ffff37000000fa008005210080077800bd
:10432c0000072100000188000080fa000000060050
:020000040000fa
:04433c00ffffff0080
:020000040000fa
:020000040005f5
:047e0000ffffff0081
:020000040000fa
:020000040005f5
:047e2000ffffff0061
:020000040000fa
:020000040005f5
:047e3000f9ffff0057
:020000040000fa
:020000040005f5
:047e38007fffff00c9
:020000040000fa
:020000040005f5
:047e40006003ff00dc
:020000040000fa
:020000040005f5
:047e4800ffffff0039
:020000040000fa
:020000040005f5
:047e5000ddffff0053
:020000040000fa
:020000040005f5
:047e58000000ff0027
:020000040000fa
:020000040005f5
:047e60000000ff001f
:020000040000fa
:020000040005f5
:047e68000000ff0017
:020000040000fa
:020000040005f5
:047e70000000ff000f
:020000040000fa
:020000040005f5
:047e7800ffffff0009
:020000040000fa
:020000040005f5
:047e8000f7fcff000c
:020000040000fa
:020000040005f5
:047e8800ffffff00f9
:020000040000fa
:020000040005f5
:047eb000ffffff00d1
:020000040000fa
:020000040005f5
:047ec000ffffff00c1
:020000040000fa
:020000040005f5
:047ed000ffffff00b1
:020000040000fa
:020000040005f5
:047ee000ffffff00a1
:020000040000fa
:020000040005f5
:047ef000ffffff0091
:020000040000fa
:020000040005f5
:047ff800ffffff0088
:020000040000fa
:020000040100f9
:04300000ffffff00cf
:00000001FF
