:020000040000fa
:10000000f07f0020e70f0000cd130000cf130000a9
:1000100000000000000000000000000000000000e0
:100020000000000000000000000000003b10000085
:1000300000000000000000003b1000003b1000002a
:100040003b1000003b1000003b1000003b10000084
:100050003b1000003b1000003b1000003b10000074
:100060003b1000003b1000003b1000003b10000064
:100070003b1000003b100000000000003b1000009f
:100080003b1000003b1000003b1000003b10000044
:100090003b1000003b1000003b1000003b10000034
:1000a0003b1000003b1000003b1000003b10000024
:1000b0003b100000000000003b1000003b1000005f
:1000c0003b1000003b1000003b1000003b10000004
:1000d0003b1000003b1000003b1000006d070000cb
:1000e0006d0700006d0700006d0700003b10000069
:1000f0003b1000003b1000003b1000003b100000d4
:100100003b1000003b1000003b1000003b100000c3
:100110003b1000003b1000003b1000003b100000b3
:100120003b1000003b100000851200003b10000057
:100130003b1000003b1000003b1000003b10000093
:100140003b1000003b1000003b1000003b10000083
:0c0150003b1000003b1000003b100000c2
:020000040000fa
:10015c00f8b5c046f8bc08bc9e4670476910000054
:10016c00f8b5c046f8bc08bc9e4670473d10000070
:020000040000fa
:10017c000000000000000000000000000000000073
:10018c00000000f800000000000000333000000008
:10019c0000100c06100c060000000000000000000f
:1001ac0040c07840c0784000043f04043f04040081
:1001bc00007088fc08300000001820ff211e000091
:1001cc00f008f000e018000000211c031e211e00a6
:1001dc0000f00888700000001e212324192721102c
:1001ec0010160e00000000000000000000000000cf
:1001fc00000000e018040200000000071820400076
:10020c0000020418e0000000004020180700000065
:10021c00404080f0804040000202010f01020200c9
:10022c00000000f0000000000101011f01010100ad
:10023c00000000000000000080b070000000000012
:10024c00000000000000000000010101010101019b
:10025c000000000000000000003030000000000032
:10026c000000000080601804006018060100000007
:10027c0000e010080810e000000f102020100f0004
:10028c00001010f8000000000020203f202000008b
:10029c0000700808088870000030282422213000e3
:1002ac0000300888884830000018202020110e00eb
:1002bc000000c02010f8000000070424243f240094
:1002cc0000f80888880808000019212020110e0069
:1002dc0000e0108888180000000f112020110e007b
:1002ec0000380808c83808000000003f0000000073
:1002fc000070880808887000001c222121221c0034
:10030c0000e010080810e0000000312222110f005c
:10031c00000000c0c00000000000003030000000f1
:10032c000000008000000000000080600000000061
:10033c00000080402010080000010204081020007a
:10034c0040404040404040000404040404040400c5
:10035c00000810204080000000201008040201005a
:10036c00007048080808f00000000030360100005a
:10037c00c030c828e810e0000718272423140b000d
:10038c000000c038e0000000203c23020227382087
:10039c0008f8888888700000203f202020110e006b
:1003ac00c030080808083800071820202010080062
:1003bc0008f808080810e000203f202020100f004b
:1003cc0008f88888e8081000203f20202320180017
:1003dc0008f88888e8081000203f2000030000007f
:1003ec00c03008080838000007182020221e020020
:1003fc0008f808000008f808203f210101213f20df
:10040c00000808f8080800000020203f2020000009
:10041c0000000808f8080800c08080807f000000f9
:10042c0008f888c028180800203f20012638200032
:10043c0008f8080000000000203f20202020300099
:10044c0008f8f800f8f80800203f003f003f2000b3
:10045c0008f830c00008f808203f200007183f00bb
:10046c00e01008080810e0000f10202020100f00ea
:10047c0008f808080808f000203f210101010000dd
:10048c00e01008080810e0000f18242438504f0022
:10049c0008f8888888887000203f2000030c3020e2
:1004ac0000708808080838000038202121221c0020
:1004bc00180808f8080818000000203f2000000069
:1004cc0008f808000008f808001f202020201f0052
:1004dc000878880000c83808000007380e010000b2
:1004ec00f80800f80008f800033c0700073c03007c
:1004fc00081868808068180820302c03032c3020e2
:10050c000838c800c83808000000203f2000000050
:10051c0010080808c83808002038262120201800a8
:10052c00000000fe020202000000007f404040007c
:10053c00000c30c000000000000000010638c000b4
:10054c0000020202fe000000004040407f0000005c
:10055c000000040202020400000000000000000081
:10056c00000000000000000080808080808080807f
:10057c000002020400000000000000000000000067
:10058c0000008080808000000019242222223f205d
:10059c0008f8008080000000003f112020110e00a0
:1005ac000000008080800000000e1120202011002f
:1005bc00000000808088f800000e112020103f20e1
:1005cc000000808080800000001f22222222130065
:1005dc00008080f0888888180020203f20200000b0
:1005ec000000808080808000006b94949493600065
:1005fc0008f8008080800000203f210000203f2070
:10060c0000809898000000000020203f202000006f
:10061c00000000809898000000c08080807f00005f
:10062c0008f8000080808000203f24022d3020003c
:10063c00000808f8000000000020203f20200000e7
:10064c008080808080808000203f20003f20003f01
:10065c008080008080800000203f210000203f200f
:10066c000000808080800000001f202020201f00c0
:10067c00808000808000000080ffa12020110e00ef
:10068c000000008080808000000e112020a0ff80e0
:10069c00808080008080800020203f21200001008d
:1006ac0000008080808080000033242424241900e2
:1006bc00008080e0808000000000001f20200000ef
:1006cc008080000000808000001f202020103f2030
:1006dc00808080000080808000010e3008060100c0
:1006ec0080800080008080800f300c030c300f0065
:1006fc0000808000808080000020312e0e31200090
:10070c00808080000080808080818e7018060100bf
:10071c0000808080808080000021302c22213000dd
:10072c0000000000807c020200000000003f4040fe
:10073c0000000000ff00000000000000ff000000af
:10074c000002027c800000000040403f00000000de
:10075c000006010102020404000000000000000079
:020000040000fa
:10076c0010b540f60043c4f200239b7d1bb340f64a
:10077c000043c4f200235b8b9b071dd540f20003a2
:10078c00c2f200032022ff2199540132fd39995401
:10079c0040f20003c2f2000320229b5c5bb20133e7
:1007ac0000d1e0e040f20003c2f2000320229b5c87
:1007bc00062b00d102e110bd40f60043c4f2002329
:1007cc005b8bdb070ad540f20003c2f20003202248
:1007dc00ff2199540132fd399954d9e740f6004371
:1007ec00c4f200235b8b5b070ad540f20003c2f214
:1007fc0000032022ff2199540132fe399954c7e796
:10080c0040f20003c2f2000320229b5c5bb2032b7c
:10081c0072d0042b19d0022bbad140f20003c2f2d1
:10082c0000031b6943b140f20003c2f20003988835
:10083c00002100f02ffbabe740f20003c2f20003f3
:10084c009888012100f026fba2e740f20003c2f2d7
:10085c0000039a691b699a4214d040f20003c2f259
:10086c0000039968885c40f60041c4f2002188625c
:10087c0001329a6140f60042c4f20022d369002b87
:10088c00fcd185e740f20003c2f200035b69dbb1e7
:10089c0040f20003c2f200039b885b000122134369
:1008ac0040f60042c4f20022536240f60042c4f209
:1008bc000022d369002bfcd140f20003c2f20003ea
:1008cc0020220321995463e740f60043c4f200232d
:1008dc005968c02292020a435a6040f60042c4f2a0
:1008ec000022d369002bfcd140f20003c2f20003ba
:1008fc002022062199544be740f20003c2f2000378
:10090c005a69013adb69934215d040f60042c4f2b1
:10091c000022d369002bfcd140f60043c4f2002323
:10092c00996a40f20003c2f20003da69d868815474
:10093c000132da612ce740f60043c4f20023596817
:10094c00e022d2020a435a6040f60042c4f200226e
:10095c00d369002bfcd140f20003c2f20003202229
:10096c0006219954d1e740f20003c2f200030021a2
:10097c00995440f60043c4f200235968c0229202f5
:10098c000a435a6040f60042c4f20022d369002b9d
:10099c00fcd140f60043c4f200239b221a7640f2ad
:1009ac000003c2f200035a6a002a00d103e740f2a6
:1009bc000003c2f20003986a9047fce640f2000381
:1009cc00c2f20003002220215a5401315a5440f63d
:1009dc000043c4f200239b321a7640f60042c4f264
:1009ec0000220f31538b0b40102bfbd140f2000334
:1009fc00c2f200035a6a002a00d1dce640f200037e
:0a0a0c00c2f20003986a9047d5e695
:020000040000fa
:100a160041f20003c4f200030e221a7641f20041ad
:100a2600c4f2000100220a7441f60001c4f200017a
:100a3600022008621a8641f20002c4f200028021f6
:100a4600490413690b42fcd046f22003c0f280032e
:100a56001b685b009b0e9b0240f200221343d200f0
:100a6600c4f20002536341f20002c4f20002802184
:100a7600490413690b42fcd041f20003c4f200039f
:100a860002221a86d202c4f20002802149041369a6
:100a96000b42fcd041f60043c4f2000340f20712b9
:100aa600c0f201021a6241f60042c4f200020421b9
:100ab60053681942fcd141f60043c4f20003cc222c
:100ac6004021995041f60042c4f20002cc2013584e
:100ad6001942fcd041f60043c4f20003e42240214f
:100ae600995041f60042c4f20002e420135819421c
:040af600fcd0704779
:020000040000fa
:100afa00f8b5de4657464e464546e0b507008946f4
:100b0a0093461578002d45d040f2000840f27c1338
:100b1a00c0f2000340f2100a9a4431e04946380014
:100b2a0000f0f1fb2e0140f27c13c0f200039c4658
:100b3a0066440024305d00f086fb0134082cf9d1ac
:100b4a004b46591cc9b2380000f0ddfb2d012c00c0
:100b5a00083440f27c13c0f200039c4664445544b6
:100b6a00207800f070fb0134ac42f9d10837ffb2ab
:100b7a0043460133dbb298465b4642469d5c4db123
:100b8a00203dedb2782fc9d94b460133dbb29946e5
:100b9a000027c3e73cbc90469946a246ab46f8bd3f
:020000040000fa
:100baa0010b5ae2000f035fb202000f032fb1020fb
:100bba0000f02ffbb02000f02cfbc82000f029fb2e
:100bca00002000f026fb102000f023fb402000f05c
:100bda0020fb812000f01dfb7f2000f01afba120e2
:100bea0000f017fba62000f014fba82000f011fb70
:100bfa003f2000f00efba42000f00bfbd32000f0f6
:100c0a0008fb002000f005fbd52000f002fbf020d5
:100c1a0000f0fffad92000f0fcfa222000f0f9fadd
:100c2a00da2000f0f6fa122000f0f3fadb2000f0e6
:100c3a00f0fa202000f0edfa8d2000f0eafa1420f4
:0c0c4a0000f0e7faaf2000f0e4fa10bd63
:020000040000fa
:100c560010b5002000f0c5fa43f20003c4f2000309
:100c6600802252029a6152005a6152009a6194227d
:100c76008021c903995041f2e520c0f2000000210d
:100c860000f09afb00f065fb41f27930c0f20000fb
:100c9600002100f08afb40f25903c2f20003002251
:100ca6001a7040f25903c2f200031a78002afcd0e7
:100cb600fff778ff00f0fcfa41f22c14c0f20004b2
:100cc600220000210020fff715ff2200103202212a
:100cd6000020fff70fff2200243204210020fff737
:100ce60009ff2200343206210020fff703fffee74a
:020000040000fa
:020cf600704745
:020000040000fa
:100cf80040f2000040f20002f0b5c646c2f2000021
:100d0800c2f2000200b503000021904203d219701c
:100d180001339342fbd140f61472c0f2000213680b
:100d280054681900214340f20b0c40f203080026d6
:100d380081b1170091680c3779b91a191cb11e7066
:100d480001339342fbd13a001368546819002143d8
:100d58000029eed104bc9046f0bd6146c91a1d19a0
:100d680051182cb15a1c505c187013009542f9d1d7
:100d7800434623405a1e9341a4081c19a4003f1956
:040d88003a00e1e765
:020000040000fa
:100d8c0040f60043c4f2002301221a6040f60042f0
:100d9c00c4f20022d369002bfcd140f60043c4f20c
:100dac00002340f200125a6040f60042c4f20022c6
:100dbc00d369002bfcd140f60043c4f20023e82297
:100dcc00da60d23ac0f210021a6040f60042c4f265
:100ddc000022d369002bfcd140f60043c4f200235f
:100dec0010225a8340f60042c4f20022d369002b31
:100dfc00fcd140f20003c2f20003002221215a541c
:100e0c0001395a5440f60043c4f200239b329a75c0
:020e1c0070471d
:020000040000fa
:020e1e0070471b
:020000040000fa
:100e200010b5bff35f8f62b64ef20013cef200032f
:100e300040f224301a581202120ac02109060a434d
:100e40001a5080225a6040f228329958ff2081437c
:100e50003f380143995040f20011596099580e48ab
:100e600001404cf200000143995040f200215960ca
:100e700099580a4c2140c020000401439950d832af
:100e80005a6040f238315a5822401043585080225c
:100e9000d2045a6010bdc046ff00ffffffff00fff5
:020000040000fa
:100ea00010b540f20003c2f2000300229a61da6139
:100eb00040f60043c4f200239b321a765a68144c61
:100ec00022405a6040f60042c4f20022d369002b4f
:100ed000fcd1a9b140f20003c2f200032022032496
:100ee0009c544000084340f60043c4f2002358627b
:100ef00040f60042c4f20022d369002bfcd110bda1
:100f000040f20003c2f20003202204249c54e8e7cc
:040f1000fffffbffe5
:020000040000fa
:100f14002c0000201c000000000000000000002045
:100f24002c00000000000000480000200800000021
:100f34000000000058000020010000000100000033
:100f44000100000059000020010000000100000021
:100f54000100000050000020040000000000000018
:100f64005400002004000000000000000000000005
:100f740000000000222222222222222222222222d5
:020000040000fa
:100f840042f60003c4f2002301221a6042f6000272
:100f9400c4f20022012193681942fcd142f60003f5
:100fa400c4f2002340f200421a600222da634df6d2
:100fb400d052c0f206021a644ff60f42c0f20f027a
:100fc400da6240f24802c2f20002002111600122fa
:100fd4009a6242f60002c4f200229368002bfcd10c
:020fe400704754
:020000040000fa
:100fe60010b540f61f63c0f20003984740f61f6332
:100ff600c0f200039847fff77cfe40f20003c0f200
:1010060000037f2293434ef60052cef20002936015
:1010160041f2dd03c0f20003984740f61f63c0f2b9
:101026000003984740f61f63c0f200039847fff796
:041036000ffefee7c4
:020000040000fa
:02103a00fee7cf
:020000040000fa
:10103c0010b540f22c04c2f20004237863b940f2dc
:10104c000003c0f200032bb140f20000c0f200001c
:10105c0000e000bf0123237010bdc04640f2000326
:10106c00c0f2000310b54bb140f2300140f2000069
:10107c00c2f20001c0f2000000e000bf10bdc0468b
:020000040000fa
:10108c0010b543f20003c4f20003e022d2021a604e
:10109c0040f200321a61052248215a5401315a5447
:1010ac00002207315a5401315a544f3952201954e5
:1010bc001e3833241c5404301a5401301a5447304f
:1010cc008024e4031c5056301954b9315a5410bdc5
:020000040000fa
:1010dc0070b500250e4c0f4be41aa410a54209d193
:1010ec000025fff735f80c4c0c4be41aa410a54264
:1010fc0007d170bd074aab009b181b689847013598
:10110c00ece7064aab009b181b6898470135eee7e5
:10111c0068010000680100006c010000680100001b
:020000040000fa
:10112c004150502d416c6c204d43553230323300c0
:10113c004920616d205049433332434d4c4534387e
:10114c000000000057616974696e6720666f722039
:10115c002e2e2e00596f7572204e657720496465ce
:04116c0061200000fe
:020000040000fa
:1011700070b5050040f20003c2f2000320201b5ca2
:10118000002003b170bd40f20003c2f200039d8055
:101190000024dc605c6199601a619c701c702122e3
:0e11a0009c5400212800fff77bfe0120eae7a7
:020000040000fa
:1011ae0040f20043c4f2000300221a819a79012111
:1011be000a439a719b7803221340022b0cd040f203
:1011ce000043c4f20003013a9a705202c4f20002c4
:0a11de00012193790b42fcd0704709
:020000040000fa
:1011e80010b5fff7e0ff44f20003c4f20013042235
:1011f8005a60fff747fffff70afc00f0c4f8fff753
:10120800c1fdfff774fdfff7b9fe00f08ff8fff797
:0412180003fe10bd04
:020000040000fa
:10121c0010b540f25803c2f2000300221a7040f2db
:10122c005001c2f2000180230b70487002323c2046
:10123c00fff798ff40f25802c2f200021378002b1d
:04124c00fcd010bd05
:020000040000fa
:1012500010b540f25803c2f2000300221a7040f2a7
:101260005001c2f2000140230b70487002323c2052
:10127000fff77eff40f25802c2f200021378002b03
:04128000fcd010bdd1
:020000040000fa
:1012840010b542f60003c4f20023d86a4ff60f42a9
:10129400c0f20f02da62db6a40f24803c2f20003d2
:1012a4001a682ab140f24803c2f200035968904711
:0212b40010bd6b
:020000040000fa
:1012b60070b5b0252800fff7aeff0020fff7abffa3
:1012c6001020fff7a8ff80240020fff7beff013c97
:0e12d600002cf9d10135edb2b82debd170bd71
:020000040000fa
:1012e40043f20003c4f2000380225202da61520086
:1012f400da615200da619c228021c903995040f2dc
:0c1304005903c2f200039b3a1a707047b4
:020000040000fa
:1013100010b504005039c8b2fff780ff2009102330
:101320001843fff77bff0e20204001231843fff7ef
:0413300075ff10bd78
:020000040000fa
:1013340044f60003c4f2002301221a7000221a7139
:101344005a710221c0f240019960da601a615a614f
:041354001a70704754
:020000040000fa
:1013580042f60003c4f200231a6802210a431a6005
:1013680042f60002c4f2002293681942fcd1704789
:020000040000fa
:1013780010b500f011f828b940f25803c2f2000382
:0613880001221a7010bde5
:020000040000fa
:10138e0044f20003c4f2001306225a60053a1a72a0
:02139e00704796
:020000040000fa
:1013a00040f20003c2f200032122985cc0b27047f1
:020000040000fa
:0e13b00040f20003c2f20003586299627047d7
:020000040000fa
:0e13be0040f24803c2f2000318605960704705
:020000040000fa
:0213cc00fee73a
:020000040000fa
:0213ce00fee738
:020000040000fa
:0200000400807a
:0440000077438fb0c3
:020000040000fa
:0200000400807a
:04400400bbf0ffff0f
:020000040000fa
:0200000400807a
:04c004000000e8ff51
:020000040000fa
:0200000400807a
:04c04000ffffffff00
:020000040000fa
:0200000400807a
:04c04400fffffffffc
:020000040000fa
:0200000400807a
:04c04800fffffffff8
:020000040000fa
:0200000400807a
:04c04c00fffffffff4
:00000001FF
